:020000040800F2
:10000000901D0124A1030008099000083381000815
:10001000D38E0008310C0008C9CD00080000000094
:10002000000000000000000000000000E1020008E5
:10003000A1120008000000003D0300084DAC0008BC
:10004000BF030008BF030008BF030008BF03000888
:10005000BF030008BF030008BF030008BF03000878
:10006000BF030008BF030008BF030008250D0008F8
:10007000BF030008BF030008BF030008BF03000858
:10008000BF030008BF030008BF030008BF03000848
:10009000BF030008BF030008BF030008BF03000838
:1000A000BF030008BF030008BF030008BF03000828
:1000B000BF030008BF030008BF030008BF03000818
:1000C000BF030008BF030008BF030008BF03000808
:1000D000BF030008B9CD0008BF030008BF03000834
:1000E000BF030008BF03000800000000BF030008B2
:1000F000BF030008BF030008BF030008BF030008D8
:10010000BF030008D5920008BF030008BF03000822
:10011000FDB30008BF03000825AE0008BF030008B8
:10012000BF030008BF030008BF030008BF030008A7
:10013000BF030008BF030008BF030008BF03000897
:1001400000000000000000000000000000000000AF
:10015000BF030008BF030008BF030008BF03000877
:10016000BF030008BF030008BF030008BF03000867
:10017000BF030008BF030008BF0300080000000021
:10018000BF030008BF030008BF030008BF03000847
:10019000BF030008BF030008BF030008BF03000837
:1001A000BF030008BF030008BF03000800000000F1
:1001B000BF030008BF030008BF030008BF03000817
:1001C000BF030008BF03000800000000000000009B
:1001D0000000000000000000BF0300080000000055
:1001E000000000000000000000000000000000000F
:1001F0000000000000000000BF030008BF0300086B
:10020000BF030008BF03000800000000BF03000890
:10021000BF030008BF030008BF030008BF030008B6
:10022000BF03000800000000BF030008000000003A
:10023000BF030008BF03000800000000BF03000860
:10024000BF030008BF030008BF030008BF03000886
:10025000BF030008BF030008BF030008BF03000876
:10026000BF030008BF030008BF030008BF03000866
:10027000BF030008BF030008BF0300080000000020
:10028000BF030008BF030008BF030008BF03000846
:1002900000000000BF030008BF03000800000000CA
:1002A00000000000BF030008BF030008BF030008F0
:1002B000BF030008BF030008BF030008BF03000816
:1002C000BF030008BF030008BF030008DFF80CD01D
:1002D00000F022FB0048004771720408901D0124C1
:1002E0002C4B19680868B0E8F04F80F30988BFF319
:1002F0006F8F4FF0000080F31188704700000000FE
:1003000008480068006880F308884FF0000080F318
:10031000148862B661B6BFF34F8FBFF36F8F00DFF3
:1003200000BF00BF08ED00E0DFF80C00016841F4F9
:1003300070010160704700BF88ED00E0EFF30980B5
:10034000BFF36F8F134B1A681EF0100F08BF20ED1C
:10035000108A20E9F04F106009B44FF0500080F38C
:100360001188BFF34F8FBFF36F8F58F0ABF94FF089
:10037000000080F3118809BC19680868B0E8F04FE4
:100380001EF0100F08BFB0EC108A80F30988BFF38D
:100390006F8F704718000024EFF30580704700004E
:1003A000074880470748804707480047FEE7FEE7C1
:1003B000FEE7FEE7FEE7FEE7FEE7FEE7FEE7FEE715
:1003C000FD13000819AD0008CD0200082DE9F05F0B
:1003D0000546002092469B468846064681464024B4
:1003E0001BE0284641464746224600F0CDF85346DA
:1003F0005A46C01A914110D311461846224600F0C1
:10040000B4F82D1A67EB01084F462246012000215F
:1004100000F0ABF817EB00094E41201EA4F10104D7
:10042000DFDC484631462A464346BDE8F09F2DE9C9
:10043000F0410024061B254671F1000605DA01246F
:100440000027D0EB070067EB0101161E73F10006D1
:1004500005DA0027D2EB0702012567EB0303FFF75C
:10046000B5FF86460E4617469C46AC4204D0002592
:10047000D0EB050E65EB010624B10020D2EB00079E
:1004800060EB030C704631463A466346BDE8F081A6
:1004900040EA01039B0703D009E008C9121F08C006
:1004A000042AFAD203E011F8013B00F8013B521E86
:1004B000F9D27047D2B201E000F8012B491EFBD2FD
:1004C00070470022F6E710B513460A46044619465F
:1004D000FFF7F0FF204610BD30B505462A460B4613
:1004E00012F8010B13F8014B08B1A042F8D01CB16F
:1004F000002802D06D1CF1E7284630BD10B5044637
:1005000004E00B7800F8013B03B1491C521EF8D2FD
:10051000204610BD421C10F8011B0029FBD1801A97
:10052000704710B5002200E0521C835C8C5CA34233
:1005300001D1002BF8D1D8B2E1B2401A10BD30B5CC
:100540000B46014600202022012409E021FA02F591
:100550009D4205D303FA02F5491B04FA02F528442B
:10056000151EA2F10102F1DC30BD202A04DB203A85
:1005700000FA02F1002070479140C2F1200320FAF6
:1005800003F3194390407047202A04DB203A21FAF4
:1005900002F00021704721FA02F3D040C2F120029C
:1005A00091400843194670472DE9FE4F804681EA85
:1005B0000300C00F0C46009021F0004123F00045DD
:1005C000B8EB0200A94105D24046214690461C46A0
:1005D0000B46024623F00040104347D0270DC7F3D7
:1005E0000A00C3F30A510290401A019040286BDAC6
:1005F000C3F3130040F4801B0098924620B10023FF
:10060000D2EB030A63EB0B0B01985946C0F1400291
:100610005046FFF7AAFF06460D4650465946019A36
:1006200000F08CF910EB08006141002487EA1152B8
:1006300084EAE7731A4340D0009A62B3019A012A10
:100640004FEA075215DC001B61EB02014FF000423C
:1006500002EA0752CDE90042001C41F58011324602
:100660002B4600F08CF903B0BDE8F08F40462146E0
:10067000F9E7001B61EB0201001C41F58013001833
:100680005B412018A2F5001747EB030140EAD57043
:10069000B6196D4111E06D084FEA360645EAC0759E
:1006A0004FEA0752001B61EB0201001C41F580116B
:1006B00049084FEA30000019514132462B4603B039
:1006C000BDE8F04F00F04CB9009801224000002333
:1006D000D0EB020263EBE073009821464FEAE0742E
:1006E000B8EB000061EB0401E9E783F000435BE74E
:1006F00081F0004158E72DE9FE4F81EA030404F040
:10070000004421F0004100944FF0000B23F000431F
:1007100050EA01045ED052EA03045BD0C3F30A54EA
:10072000C1F30A552C44A4F2F3340194A0FB025403
:10073000C1F3130141F48011C3F3130343F4801395
:1007400001FB024400FB034E840A970A44EA8154E9
:1007500047EA8357A4FB076802958D0A05FB0785C6
:100760004FEA932C04FB0C542705029D4FEA0658D0
:1007700047EA1637B5EB08056EEB070C870E920EAD
:1007800047EA811742EA8312A7FB0201B6EB0B018D
:1007900064EB00042B0D43EA0C335E1844EB1C5051
:1007A000DA465146E7FB0201C5F313044FEA0B3367
:1007B00043EA14534FEA0432019C43EA0603A4F1CE
:1007C0000C040294009CCDE900B400F0D8F803B00A
:1007D000BDE8F08F00200146F9E72DE9F04D81EAF0
:1007E000030404F0004B21F0004514464FF0000ACA
:1007F00023F0004150EA050220D054EA01021DD046
:10080000C5F30A570246C5F31303C1F31300C1F33E
:100810000A5640F4801543F48013A7EB0608101B1A
:10082000D64608F2FD3873EB050002D308F1010843
:1008300001E092185B41B8F1000F03DA0020014695
:10084000BDE8F08D00204FF48011064684460EE08E
:10085000171B73EB050705D3121B63EB0503064358
:100860004CEA010C49084FEA300092185B4150EA0B
:100870000107EDD152EA030012D082EA040083EAB4
:100880000501084305D0101BAB4106D2012200230D
:1008900006E000224FF0004302E06FF00102531027
:1008A0001AEB06004CEB085110EB0A0041EB0B0170
:1008B000BDE8F04D00F054B8C1F30A52C1F3130182
:1008C00040F2FF3341F480119A4202DA00200146DF
:1008D000704740F233439A42A2F2334202DC524262
:1008E000FFF752BEFFF741BE30B5041E71F10004A0
:1008F00004DB4FF00044404264EB0101141E73F12D
:10090000000405DB1C464FF00043524263EB040336
:10091000994208BF904230BD064C074D06E0E068A2
:1009200040F0010394E8070098471034AC42F6D336
:10093000FFF7D0FCE05D0608105E0608202A06DB03
:10094000CB17203A41FA02F043EAE07306E041FA9D
:1009500002F3D040C2F1200291400843194670478B
:1009600010B5141E73F1000408DA401C41F10001B7
:1009700092185B411A4301D120F0010010BD2DE90E
:10098000F04D92469B4611B1B1FA81F202E0B0FA05
:1009900080F220329046FFF7E8FD04460F4640EA19
:1009A0000A0041EA0B0153465A46084313D0114648
:1009B00053EA010019D0C8F140025046FFF7E4FDA8
:1009C00005460E46504659464246FFF7CEFD0843BF
:1009D00005D0012004E020463946BDE8F08D002016
:1009E000054346EAE0762C4337430A986305E40A58
:1009F000A0EB08000022FD0A44EA47540A3002D561
:100A000000200146E9E7010510196941DDE90845C3
:100A100000196941BDE8F04DA2E770B58C1810F8D7
:100A2000015B15F0070301D110F8013B2A1106D133
:100A300010F8012B03E010F8016B01F8016B5B1E4D
:100A4000F9D12B0705D40023521E0DD401F8013B28
:100A5000FAE710F8013BCB1A921C03E013F8015B94
:100A600001F8015B521EF9D5A142D8D3002070BD18
:100A700010B50B480B4988600B48C8600B484861AB
:100A80000B4888610B48C8610B4808610B48086235
:100A90000BA30DA20AA1012007F082FF10BD0000E8
:100AA000258F0008E8BE0024898F0008D78E000833
:100AB000DF8F0008AF8F0008618F0008F18E0008FB
:100AC0004253505F4C4344005B492F25735D204CDB
:100AD0004344204F626A65637420436F6E7374727F
:100AE00075637465642E0D0A0000000010B50123C3
:100AF00080220649064807F00DFF064806A2036853
:100B00000168012007F04CFF10BD000000180258DA
:100B1000D4BE00244C0100245B492F25735D205373
:100B20007461747573204C4544206F6E20504737B4
:100B300020696E697469616C697A65642E0D0A00BA
:100B400010B504462146024805F034FD10BD0000F2
:100B5000E002002410B5044805F03FFD042801D14F
:100B6000002010BD0120FCE7E002002410B50024A5
:100B7000084805F032FDFF280AD107A307A206A105
:100B8000012007F00DFF034805F0E8FE00B1022444
:100B9000204610BDE0020024534400005B492F258D
:100BA000735D20726573746172740D0A0000000039
:100BB00070B504460D46164633462A46214604487B
:100BC00006F004F808B9002070BD0220FCE7000020
:100BD000E002002408B50120009000231A4669466F
:100BE0000248006847F0A4F908BD0000CC020024C8
:100BF00070B504460D46164633462A46214604483B
:100C000006F064F808B9002070BD0220FCE700007F
:100C1000E002002408B50220009000231A4669462D
:100C20000248006847F084F908BD0000CC020024A7
:100C300000BFFEE72DE9F84F07460C4690464FF0FF
:100C40000009CA4600250026A346A01D00900425E1
:100C5000A7F1500010283AD2DFE800F01608190F6B
:100C60001E2326292C2F3239393939354FF03409D2
:100C700003254FF0400A01262BE04FF03D090325E4
:100C80004FF02E0A012624E04FF0300921E04FF00A
:100C900037094FF003081CE04FF03A094FF0030802
:100CA00017E04FF0410914E04FF0450911E04FF013
:100CB00049090EE04FF04D090BE04FF0510908E0F3
:100CC0004FF0550905E01448D0F8009001E0BDE868
:100CD000F88F00BFB8F1030F01D1032500265DB1E5
:100CE0006A000E4901EB49005946FFF7D1FB29463E
:100CF00048460B4A126890475EB17200074901EB03
:100D00004A000099FFF7C4FB31465046044A126876
:100D1000904700BFDBE70000BC000024A4B3002420
:100D2000A800002410B5024801F074F910BD0000BD
:100D30000C0500240146374A0868904249D0354ADC
:100D400018320868904244D0324A303208689042E3
:100D50003FD0304A4832086890423AD02D4A60323B
:100D60000868904235D02B4A78320868904230D0DB
:100D7000284A9032086890422BD0264AA832086848
:100D8000904226D0244A0868904222D0224A183243
:100D9000086890421DD0204A30320868904218D02E
:100DA0001D4A48320868904213D01B4A60320868D6
:100DB00090420ED0184A78320868904209D0164AFC
:100DC00090320868904204D0134AA83208689042D2
:100DD00001D1012000E00020B0B10A78103A1823B8
:100DE000B2FBF3F000F007020C4B9A5CCA650328D3
:100DF00005D90A686FF30902121D8A6503E00A68C3
:100E00006FF309028A6503E0086820F0FF00886537
:100E1000886D70471000024010040240649F05086E
:100E200010B502682B4C0368A34222D0294C14341D
:100E30000368A3421DD0274C28340368A34218D06E
:100E4000244C3C340368A34213D0224C5034036832
:100E5000A3420ED01F4C64340368A34209D01D4C3A
:100E600078340368A34204D01A4C8C340368A3423C
:100E700001D1012300E000238BB10378083B142447
:100E8000B3FBF4F1144B03EB81030366124B803385
:100E9000436601F01F040123A340836618E0037832
:100EA000103B1824B3FBF4F10C4B9A4204D80B4BC3
:100EB000A83B9A4200D30831094B03EB8103036638
:100EC000074B8033436601F01F040123A340836670
:100ED00010BD00000854025800580258B8040240DF
:100EE000000802400179A9B3082940D8204B0268C4
:100EF0009A4222D01E4B143302689A421DD01C4BDA
:100F0000283302689A4218D0194B3C3302689A423F
:100F100013D0174B503302689A420ED0144B6433EF
:100F200002689A4209D0124B783302689A4204D080
:100F30000F4B8C3302689A4201D1012200E000225B
:100F40004AB14A1E0B4B03EB8202C266094A403289
:100F5000026708E00BE04A1E074B03EB8202C26601
:100F6000054A403202674A1E012393404367704797
:100F70000854025800590258000902400146002056
:100F80008A69D2B98A6A32B1012A0DD0022A03D005
:100F9000032A10D10EE000BFCA6A02F08072B2F1DB
:100FA000807F00D1012007E0CA6AB2F1C07F00D182
:100FB000012001E000E000BF36E08A69B2F5005F81
:100FC0001BD18A6A32B1012A07D0022A03D0032A30
:100FD00011D10AE000BF01200EE0CA6A02F080725F
:100FE000B2F1807F00D1012006E0CA6AB2F1C07F71
:100FF00000D1012000E000BF16E08A6A32B1012A68
:1010000005D0022A04D0032A0CD103E000BF00BFA0
:10101000012008E0CA6A02F08072B2F1807F00D13C
:10102000012000E000BF00BF70470000F0B5856DF3
:10103000846D984F0668BE4270D0964F1837066888
:10104000BE426BD0934F30370668BE4266D0914F98
:1010500048370668BE4261D08E4F60370668BE4290
:101060005CD08C4F78370668BE4257D0894F903796
:101070000668BE4252D0874FA8370668BE424DD0A0
:10108000854F0668BE4249D0834F18370668BE4276
:1010900044D0814F30370668BE423FD07E4F48373C
:1010A0000668BE423AD07C4F60370668BE4235D0F3
:1010B000794F78370668BE4230D0774F9037066850
:1010C000BE422BD0744FA8370668BE4226D0734F5D
:1010D0000668BE4222D0714F14370668BE421DD04A
:1010E0006E4F28370668BE4218D06C4F3C370668F2
:1010F000BE4213D0694F50370668BE420ED0674FCC
:1011000064370668BE4209D0644F78370668BE422D
:1011100004D0624F8C370668BE4201D1012600E040
:1011200000263EB1D0E919767E60C66E16B1D0E9D0
:101130001C767E60574F0668BE4249D0554F18371F
:101140000668BE4244D0534F30370668BE423FD097
:10115000504F48370668BE423AD04E4F6037066857
:10116000BE4235D04B4F78370668BE4230D0494F2B
:1011700090370668BE422BD0464FA8370668BE425D
:1011800026D0454F0668BE4222D0434F1837066826
:10119000BE421DD0404F30370668BE4218D03E4F89
:1011A00048370668BE4213D03B4F60370668BE42E0
:1011B0000ED0394F78370668BE4209D0364F903787
:1011C0000668BE4204D0344FA8370668BE4201D13B
:1011D000012600E00026DEB190F85C6006F01F07F3
:1011E0003F26BE40AE600668366826F48026076853
:1011F0003E60066873608668402E04D10668B2605F
:101200000668F16044E00668B1600668F2603FE09D
:10121000224F0668BE4222D0204F14370668BE42D5
:101220001DD01E4F28370668BE4218D01B4F3C37D2
:101230000668BE4213D0194F50370668BE420ED022
:10124000164F64370668BE4209D0144F78370668D7
:10125000BE4204D0114F8C370668BE4201D1012630
:1012600000E00026A6B190F85C6006F01F0701269A
:10127000BE406660066873608668402E04D10668CA
:10128000B2600668F16003E00668B1600668F2606B
:10129000F0BD000010000240100402400854025843
:1012A000704710B50446204646F036FD10BD0000DC
:1012B00030B50246002012E00D4B1C881B885B1CD9
:1012C0000B4D2B800B4B1D5D0346441CA0B2D55427
:1012D000074B1B88FF2B02DD0023054C2380044BAA
:1012E0001B88054C2488A34201D08842E4DB30BD32
:1012F00046010024D4BD00244401002438B5082050
:1013000015490968086200BF13480068806940F009
:1013100008001149096888610F480068806940F039
:1013200010000D490968886100BF01220B490A4875
:1013300006F04AFE04463CB109A30BA208A1032013
:10134000009407F02DFB05E005A312A204A10120E3
:1013500007F026FB38BD0000E40300244801002408
:1013600055415254340000005B452F25735D2049E0
:101370004D55205541525420495420537461727484
:10138000204661696C65642120436F64653A2025BD
:10139000640D0A005B492F25735D20494D5520558A
:1013A000415254204954205374617274656420532F
:1013B00075636365737366756C6C792E0D0A000036
:1013C00070B50446012C01DB052C01D3002070BD53
:1013D000074A02EBC4029188054A52F8340002F031
:1013E0001BF905460DB90120F1E70020EFE70000E9
:1013F000C809060872B600BFFEE70000074800688B
:1014000040F002000549086000BF04480838006841
:1014100000F400500028F8D0704700000C48025833
:1014200030B504460D4600222946204600F002F859
:1014300030BD0000F0B50346012500241148407A74
:1014400001281CDA00200F4E767A0E4FB855384628
:10145000467A001D40F82630001F467A0830825533
:101460003E46707A461C7E72044604F130000870D5
:101470003A2048702F2088700020C8700025284628
:10148000F0BD000084FD00242DED028B82B0994850
:1014900099A203680168012007F082FA9D4800685C
:1014A00020B900209C49086046F016FF4FF0FF313C
:1014B0009848006846F07EFD41F05AFA044639F03B
:1014C000DDFF96494861F022486911463FF063FB11
:1014D000002029F01BFC91490190002248690199E4
:1014E0003FF094FB8D49486939F0C8FF8B4908618A
:1014F0001422086911463FF04EFB88490022086912
:1015000047F6FF713FF0C3FC4FF47F4029F0FEFB2C
:10151000824901900022086901993FF077FB7D48DC
:10152000006846F0D1FD9FED7E0A7C4880ED000A00
:101530009FED7B0A80ED010A9FED7A0A80ED020A99
:101540009FED780A80ED030A012074490876AEE029
:10155000754890ED080ADFED750A20EE200AB0EE1E
:10156000408A90ED070ADFED710A20EE200AF0EEC6
:10157000408A6A4890ED020A30EE080ADFED6C0AF4
:1015800020EE200A80ED020A90ED030A30EE280AD0
:10159000DFED670A20EE200A80ED030A90ED000AD5
:1015A000D0ED020A30EE200A80ED000A90ED010A2B
:1015B000D0ED030A30EE200A80ED010A90ED000A1A
:1015C000B5EEC00AF1EE10FA0DD29FED560A80ED8D
:1015D000000A90ED020AB1EE400AF6EE000A20EE93
:1015E000200A80ED020A4D4890ED000ADFED510A15
:1015F000B4EEE00AF1EE10FA0DDD9FED4E0A80ED3B
:10160000000A90ED020AB1EE400AF6EE000A20EE62
:10161000200A80ED020A414890ED010AB5EEC00AA9
:10162000F1EE10FA0DD29FED3F0A80ED010A90ED28
:10163000030AB1EE400AF6EE000A20EE200A80ED21
:10164000030A364890ED010ADFED3A0AB4EEE00AEB
:10165000F1EE10FA0DDD9FED370A80ED010A90EDF5
:10166000030AB1EE400AF6EE000A20EE200A80EDF1
:10167000030A4FF0FF312748006846F09BFC274BD8
:1016800093ED010ABDEEC00A10EE102A93ED000A98
:10169000BDEEC00A10EE101A18693FF010FA1D488E
:1016A000006846F011FD142046F036FB00BF1B48D1
:1016B000007E00287FF44CAF0E481FA2036801682B
:1016C000012007F06DF94FF0FF311248006846F035
:1016D00071FC1248406918B11049486939F0E8FEB8
:1016E0000C48006846F0F0FC00200B49086046F00A
:1016F000F3FD0000140200245B492F25735D204791
:10170000616D65205461736B2053746172746564FC
:10171000210D0A00700100241802002404FB00249B
:101720000000DC4200000000D8FA00249A99193E1B
:101730008FC2753F00005C435B492F25735D2043DA
:101740006C65616E696E672075702067616D6520DC
:101750007265736F75726365732E2E2E0D0A00000D
:1017600000B589B00848006860B924220749684676
:10177000FEF78EFE6A460021054846F0B2FD02499A
:10178000086000BF09B000BD18020024FC0A06086A
:1017900089140008002001490876704704FB0024E2
:1017A0002DE9F041044601F04FFF804614B90120B5
:1017B000BDE8F08194F83500022808D080206065EB
:1017C00000BF002084F8340000BF0120F0E7FE498C
:1017D0002068884249D0FC4918312068884244D0AA
:1017E000F9493031206888423FD0F74948312068B4
:1017F00088423AD0F44960312068884235D0F249B5
:1018000078312068884230D0EF4990312068884292
:101810002BD0ED49A8312068884226D0EB492068BA
:10182000884222D0E9491831206888421DD0E74912
:1018300030312068884218D0E44948312068884215
:1018400013D0E2496031206888420ED0DF497831F8
:101850002068884209D0DD4990312068884204D050
:10186000DA49A8312068884201D1012000E0002037
:1018700068B12068006820F01E00216808602068B8
:10188000406920F0800021684861256806E02068F2
:10189000006820F00E00216808602568CA492068A9
:1018A000884270D0C8491831206888426BD0C64938
:1018B00030312068884266D0C34948312068884268
:1018C00061D0C1496031206888425CD0BE4978311E
:1018D0002068884257D0BC4990312068884252D055
:1018E000B949A831206888424DD0B849206888425B
:1018F00049D0B64918312068884244D0B3493031C4
:10190000206888423FD0B1494831206888423AD0A7
:10191000AE4960312068884235D0AC4978312068C2
:10192000884230D0A9499031206888422BD0A749FD
:10193000A8312068884226D0A5492068884222D054
:10194000A3491431206888421DD0A149283120685C
:10195000884218D09E493C312068884213D09C4967
:101960005031206888420ED09949643120688842FD
:1019700009D0974978312068884204D094498C3145
:101980002068884201D1012000E0002028B1206EAB
:10199000006820F48070216E08608B4920688842BE
:1019A00049D0894918312068884244D0864930316D
:1019B000206888423FD084494831206888423AD024
:1019C000814960312068884235D07F49783120686C
:1019D000884230D07C499031206888422BD07A49A7
:1019E000A8312068884226D078492068884222D0D1
:1019F00076491831206888421DD0744930312068FA
:101A0000884218D0714948312068884213D06F4904
:101A10006031206888420ED06C4978312068884255
:101A200009D06A4990312068884204D06749A831BA
:101A30002068884206D12068006820F001002168F3
:101A4000086005E02068006820F001002168086057
:101A500011E001F0F9FDA0EB080005280BD92020CA
:101A60006065032084F8350000BF002084F834004E
:101A700000BF01209CE6286800F001000028E8D1A2
:101A800051492068884249D04F491831206888421E
:101A900044D04D493031206888423FD04A494831CE
:101AA000206888423AD0484960312068884235D061
:101AB000454978312068884230D0434990312068C8
:101AC00088422BD04049A8312068884226D03F491F
:101AD0002068884222D03D491831206888421DD0B4
:101AE0003A4930312068884218D038494831206856
:101AF000884213D035496031206888420ED033497E
:101B000078312068884209D0304990312068884275
:101B100004D02E49A8312068884201D1012000E07C
:101B2000002040B1A66D94F85C0000F01F013F203A
:101B30008840B06007E0A76D94F85C0000F01F01DA
:101B400001208840786020492068884276D01E496C
:101B500018312068884271D01B4930312068884292
:101B60006CD0194948312068884267D016496031E5
:101B70002068884262D014497831206888425DD05C
:101B8000114990312068884258D00F49A831206807
:101B9000884253D00D49206888424FD00B491831F4
:101BA000206888424AD0094930312068884245D0AF
:101BB000064948312068884240D004496031206895
:101BC00088423BD0014905E0100002401004024069
:101BD000085402587831206888422FD0254920685F
:101BE00088422BD0234918312068884226D02249C8
:101BF0002068884222D020491431206888421DD0B4
:101C00001D4928312068884218D01B493C31206882
:101C1000884213D018495031206888420ED01649A6
:101C200064312068884209D013497831206888429D
:101C300004D011498C312068884201D1012000E094
:101C4000002068B1D4E919104860E06E40B1E06E40
:101C5000006820F48070E16E0860D4E91C104860D0
:101C6000012084F8350000BF002084F8340000BF54
:101C700000BF9DE5A00402400854025870B5044618
:101C80000CB9012070BD94F83500022803D08020E3
:101C900060650120F6E7DC492068884249D0DA49CE
:101CA00018312068884244D0D749303120688842B2
:101CB0003FD0D5494831206888423AD0D249603176
:101CC0002068884235D0D04978312068884230D0A9
:101CD000CD499031206888422BD0CB49A83120686B
:101CE000884226D0C9492068884222D0C749183185
:101CF000206888421DD0C54930312068884218D0FC
:101D0000C24948312068884213D0C04960312068F8
:101D100088420ED0BD4978312068884209D0BB493D
:101D200090312068884204D0B849A83120688842A0
:101D300001D1012000E00020F0B3042084F8350038
:101D4000B149206888424BD0AF4918312068884299
:101D500046D0AD4930312068884241D0AA49483147
:101D6000206888423CD0A84960312068884237D03A
:101D7000A54978312068884232D0A3499031206843
:101D800088422DD0A049A8312068884228D09F4998
:101D90002068884224D09D491831206888421FD08D
:101DA0009A493031206888421AD0984948312068D1
:101DB000884215D0954900E020E0603120688842D3
:101DC0000ED0924978312068884209D08F499031ED
:101DD0002068884204D08D49A8312068884206D105
:101DE0002068006820F001002168086009E120688F
:101DF000006820F001002168086002E120680068A6
:101E000020F00E00216808607F492068884249D090
:101E10007D4918312068884244D07B4930312068A0
:101E200088423FD078494831206888423AD0764984
:101E300060312068884235D0734978312068884203
:101E400030D071499031206888422BD06E49A8313A
:101E50002068884226D06D492068884222D06B498C
:101E60001831206888421DD0684930312068884286
:101E700018D0664948312068884213D063496031E0
:101E8000206888420ED0614978312068884209D0A4
:101E90005E4990312068884204D05C49A8312068AE
:101EA000884206D12068006820F00100216808609F
:101EB00005E02068006820F00100216808605249B0
:101EC0002068884270D050491831206888426BD011
:101ED0004D4930312068884266D04B4948312068EE
:101EE000884261D048496031206888425CD04649C8
:101EF00078312068884257D0434990312068884221
:101F000052D04149A831206888424DD03F492068CD
:101F1000884249D03D4918312068884244D03B4925
:101F20003031206888423FD03849483120688842A3
:101F30003AD0364960312068884235D0334978310B
:101F40002068884230D031499031206888422BD0B7
:101F50002E49A8312068884226D02D492068884221
:101F600022D02B491431206888421DD028492831BD
:101F70002068884218D026493C312068884213D016
:101F800023495031206888420ED0214964312068AD
:101F9000884209D01E4978312068884204D01C4903
:101FA0008C312068884201D1012000E00020D8B1A6
:101FB000206E006820F48070216E0860A56D94F892
:101FC0005C0000F01F01012088406860D4E919100E
:101FD0004860E06E40B1E06E006820F48070E16E11
:101FE0000860D4E91C104860012084F8350000BF67
:101FF000002084F8340000BF206D10B12046216D10
:10200000884700203EE60000100002401004024015
:10201000085402582DE9F84F044600200090FE486D
:1020200000684FF41651B0FBF1FAA66DD4F8588051
:102030003768D8F80090F9492068884249D0F749B4
:1020400018312068884244D0F449303120688842F1
:102050003FD0F2494831206888423AD0EF49603198
:102060002068884235D0ED4978312068884230D0E8
:10207000EA499031206888422BD0E849A83120688D
:10208000884226D0E6492068884222D0E4491831A7
:10209000206888421DD0E24930312068884218D03B
:1020A000DF4948312068884213D0DD49603120681B
:1020B00088420ED0DA4978312068884209D0D84960
:1020C00090312068884204D0D549A83120688842E0
:1020D00001D1012000E0002000287DD094F85C00B0
:1020E00000F01F01082088403840002868D0CB4904
:1020F0002068884249D0C94918312068884244D0B4
:10210000C6493031206888423FD0C44948312068F0
:1021100088423AD0C14960312068884235D0BF49F1
:1021200078312068884230D0BC499031206888429C
:102130002BD0BA49A8312068884226D0B8492068F7
:10214000884222D0B6491831206888421DD0B4494F
:1021500030312068884218D0B1494831206888421F
:1021600013D0AF496031206888420ED0AC49783135
:102170002068884209D0AA4990312068884204D05A
:10218000A749A8312068884204D12068006800F07F
:10219000040003E02068006800F0080080B12068B7
:1021A000006820F004002168086094F85C0000F0EA
:1021B0001F0108208840B060606D40F0010060653C
:1021C00094F85C0000F01F01012088403840E8B31B
:1021D00092492068884200E0B7E24BD08F4918311D
:1021E0002068884246D08D4930312068884241D0ED
:1021F0008A494831206888423CD08849603120684B
:10220000884237D0854978312068884232D0834966
:102210009031206888422DD08049A83120688842BA
:1022200028D07F492068884224D07D491831206811
:1022300088421FD07A493031206888421AD07849C4
:1022400048312068884215D0754900E026E06031A9
:10225000206888420ED0724978312068884209D0BF
:102260006F4990312068884204D06D49A8312068B8
:10227000884204D12068406900F0800002E02068B4
:102280000068002050B194F85C0000F01F010120AC
:102290008840B060606D40F00200606594F85C00BA
:1022A00000F01F01042088403840E8B35B492068F3
:1022B00088424BD0594918312068884246D0574946
:1022C00030312068884241D05449483120688842E2
:1022D0003CD0524960312068884237D04F4978312C
:1022E0002068884232D04D499031206888422DD0F4
:1022F0004A49A8312068884228D049492068884244
:1023000024D047491831206888421FD044493031D1
:10231000206888421AD0424948312068884215D046
:102320003F496031206800E024E088420ED03C49FB
:1023300078312068884209D0394990312068884234
:1023400004D03749A8312068884204D12068006849
:1023500000F0020002E020680068002050B194F80C
:102360005C0000F01F0104208840B060606D40F008
:102370000400606594F85C0000F01F0110208840A4
:102380003840E8B325492068884251D023491831A4
:10239000206888424CD0214930312068884247D09B
:1023A0001E4948312068884242D01C49603120686B
:1023B00088423DD0194978312068884238D0174981
:1023C00090312068884233D01449A831206888426F
:1023D0002ED01349206888422AD01149183120682C
:1023E000884225D00E4930312068884220D00C49DF
:1023F0004831206888421BD009496031206800E0DC
:102400004DE0884214D006497831206888420FD0C8
:1024100003499031206805E01000002410000240BC
:1024200010040240884203D0FE492068884204D14B
:102430002068006800F0080003E02068006800F0F1
:10244000040060B394F85C0000F01F011020884085
:10245000B0602068006800F4802080B120680068C7
:1024600000F4002028B9206CC8B12046216C8847B0
:1024700015E0A06C98B12046A16C88470FE0206859
:10248000006800F4807028B92068006820F0080017
:1024900021680860206C10B12046216C884794F8B0
:1024A0005C0000F01F0120208840384000287DD0CB
:1024B000DD492068884249D0DB49183120688842CC
:1024C00044D0D9493031206888423FD0D64948317C
:1024D000206888423AD0D44960312068884235D09B
:1024E000D14978312068884230D0CF499031206876
:1024F00088422BD0CC49A8312068884226D0C949CF
:10250000A8392068884221D0C6499039206888427D
:102510001CD0C44978392068884217D0C149603935
:102520002068884212D0BF494839206888420DD0BF
:10253000BC4930392068884208D0BA491839206827
:10254000884203D0B7492068884204D120680068D7
:1025500000F0100003E02068006800F0020028B3DB
:1025600094F85C0000F01F0120208840B06094F8CF
:10257000350004282DD12068006820F0160021685D
:1025800008602068406920F0800021684861206C64
:1025900008B9A06C28B12068006820F00800216804
:1025A000086094F85C0000F01F0100E03FE03F206D
:1025B0008840B060012084F8350000BF002084F816
:1025C000340000BF206D10B12046216D8847BDE862
:1025D000F88F2068006800F4802080B120680068CF
:1025E00000F4002028B9606C08B32046616C88476D
:1025F0001DE0E06BD8B12046E16B884717E020680A
:10260000006800F4807068B92068006820F010004D
:1026100021680860012084F8350000BF002084F89C
:10262000340000BFE06B10B12046E16B8847606D5D
:1026300000287AD0606D00F00100E8B3042084F82F
:1026400035007949206888424BD077491831206895
:10265000884246D0744930312068884241D072495E
:102660004831206888423CD06F49603120688842F8
:1026700037D06D4978312068884232D06A4990312C
:10268000206888422DD06849A8312068884228D027
:102690006449A8392068884223D06249903920686B
:1026A00088421ED05F4978392068884219D05D4938
:1026B00060392068884200E040E012D0594948392A
:1026C000206888420DD0574930392068884208D0A8
:1026D000544918392068884203D0524920688842FA
:1026E00006D12068006820F001002168086005E03C
:1026F0002068006820F001002168086000BF009891
:10270000401C0090504500D905E02068006800F0AA
:1027100001000028F3D100BF2068006800F001002C
:1027200020B1032084F8350003E00DE0012084F897
:10273000350000BF002084F8340000BFE06C0028A2
:1027400002D02046E16C8847D9E1384920688842A8
:1027500022D036491431206888421DD033492831AF
:102760002068884218D031493C312068884213D013
:102770002E495031206888420ED02C49643120689F
:10278000884209D0294978312068884204D02749F5
:102790008C312068884201D1012000E0002000280F
:1027A000D2D02068056894F85C0000F01F01042076
:1027B000884000EA0900D8B305F00400C0B394F8DB
:1027C0005C0000F01F0104208840C8F8040005F4F4
:1027D000004080B105F4803030B9A06C0028B3D03F
:1027E0002046A16C88478AE1206C0028ACD02046A6
:1027F000216C884783E105F02000E8BB0A49206886
:10280000884253D008491831206888424ED0064982
:1028100030312068884249D00349483120688842D5
:1028200044D006E0B80402401000024008540258A8
:102830004FE0B44960312068884237D0B1497831DF
:102840002068884232D0AF499031206888422DD02C
:10285000AC49A8312068884228D0AB49206888421A
:1028600024D0A9491831206888421FD0A6493031A8
:10287000206888421AD000E025E0A349483120684A
:10288000884213D0A0496031206888420ED09E490A
:1028900078312068884209D09B499031206888426D
:1028A00004D09949A8312068884206D12068006880
:1028B00020F008002168086005E02068006820F02A
:1028C000040021680860206C10B32046216C884702
:1028D00015E194F85C0000F01F010220884000EA36
:1028E0000900E8B305F00200D0B394F85C0000F0F2
:1028F0001F0102208840C8F8040005F4004070B1B0
:1029000005F4803028B9606C10B12046616C8847AE
:10291000F5E0E06BF0B32046E16B8847EFE005F0AF
:102920002000C0BB7749206888424ED075491831D5
:102930002068884249D0734930312068884244D0A9
:1029400070494831206888423FD06E496031206824
:1029500088423AD06B4978312068884235D000E00F
:102960004EE068499031206888422ED06549A831F0
:102970002068884229D064492068884225D062496D
:1029800018312068884220D05F4930312068884261
:102990001BD001E06EE02DE05B49483120688842A1
:1029A00013D059496031206888420ED05649783199
:1029B0002068884209D0544990312068884204D068
:1029C0005149A8312068884206D12068006820F06B
:1029D00014002168086005E02068006820F00A0003
:1029E00021680860012084F8350000BF002084F8C9
:1029F000340000BFE06BE8B32046E16B88477EE01F
:102A000094F85C0000F01F010820884000EA0900EB
:102A100080B305F0080068B33A49206888424BD07B
:102A2000384918312068884246D03649303120680C
:102A3000884241D033494831206888423CD03149EE
:102A400060312068884237D02E497831206888422A
:102A500032D02C499031206888422DD02949A831A4
:102A60002068884228D028492068884224D02649F6
:102A7000183100E043E0206888421DD022493031FF
:102A80002068884218D0204948312068884213D0F5
:102A90001D496031206888420ED01B49783120687A
:102AA000884209D0184990312068884204D01649DC
:102AB000A8312068884206D12068006820F01C00F8
:102AC0002168086005E02068006820F00E00216899
:102AD000086094F85C0000F01F0101208840C8F8ED
:102AE00004000120606584F8350000BF002084F8F0
:102AF000340000BFE06C10B12046E16C884700BF95
:102B000065E5000010000240100402402DE9F0418C
:102B1000044600F099FD804614B90120BDE8F0811B
:102B2000FE492068884249D0FC4918312068884213
:102B300044D0FA493031206888423FD0F7494831C3
:102B4000206888423AD0F54960312068884235D003
:102B5000F24978312068884230D0F04990312068BD
:102B600088422BD0ED49A8312068884226D0EC4914
:102B70002068884222D0EA491831206888421DD056
:102B8000E74930312068884218D0E549483120684B
:102B9000884213D0E2496031206888420ED0E04973
:102BA00078312068884209D0DD4990312068884218
:102BB00004D0DB49A8312068884201D1012000E01F
:102BC0000020002873D0606A00B100BF022084F8A2
:102BD000350000BF002084F8340000BFCF492068D2
:102BE000884249D0CD4918312068884244D0CB4929
:102BF0003031206888423FD0C84948312068884237
:102C00003AD0C64960312068884235D0C34978310E
:102C10002068884230D0C1499031206888422BD04A
:102C2000BE49A8312068884226D0BD492068884224
:102C300022D0BB491831206888421DD0B8493031B4
:102C40002068884218D0B64948312068884213D09D
:102C5000B3496031206888420ED0B149783120688C
:102C6000884209D0AE4990312068884204D0AC49EE
:102C7000A8312068884206D12068006820F0010051
:102C80002168086005E02068006820F001002168E4
:102C900008600DE000F0D8FCA0EB0800052807D97B
:102CA00020206065032084F83500012036E769E0C4
:102CB0002068006800F001000028EBD1206805685A
:102CC00098480540D4E90201084321690843616935
:102CD0000843A1690843E1690843216A08430543A1
:102CE000606A042803D1D4E90B01084305436068F6
:102CF000292802D360682E2817D960683F2802D39C
:102D00006068422811D96068472802D36068482863
:102D10000BD960684F2802D36068522805D96068D3
:102D2000742804D36068772801D8012000E00020CF
:102D300008B145F48015206805602068456925F0D4
:102D40000705606A0543606A04280DD1A06A05433F
:102D5000E06A48B12046FEF711F928B140206065CD
:102D6000012084F83500D9E6206845612046FDF74A
:102D7000E1FF064694F85C0000F01F013F20884008
:102D8000B0609EE068492068884222D066491431CC
:102D9000206888421DD0644928312068884218D0B4
:102DA00061493C312068884213D05F495031206826
:102DB00088420ED05C4964312068884209D05A4963
:102DC00078312068884204D057498C312068884285
:102DD00001D1012000E00020E0B35349206888427F
:102DE00022D051491431206888421DD04E492831E3
:102DF0002068884218D04C493C312068884213D062
:102E000049495031206888420ED0474964312068D2
:102E1000884209D0444978312068884204D0424928
:102E20008C312068884201D1012000E0002000B1EF
:102E300000BF022084F8350000BF002084F8340071
:102E400000BF2068056839480540A068402802D1C5
:102E5000102106E02EE0A068802801D1C10100E029
:102E60000021E06841EAD001206941EAD0016069AF
:102E700041EAD001A06941EAD001E06941EAD0010C
:102E8000206A41EA10100543206805602649206841
:102E9000401A1421B0FBF1F08000E0652046FDF7F8
:102EA00049FF074694F85C0000F01F0101208840AC
:102EB000786006E040206065032084F8350001203A
:102EC0002CE61649206888427AD0144918312068C7
:102ED000884275D0114930312068884270D00F493E
:102EE0004831206888426BD00C49603120688842A4
:102EF00066D00A4978312068884261D0074990310C
:102F0000206888425CD00549A8312068884257D0A3
:102F100003492068884253D0014909E0100002406B
:102F2000100402403F8010FE085402580F00FEFFBC
:102F300018312068884243D03749206888423FD002
:102F400035491831206888423AD0334930312068F9
:102F5000884235D0304948312068884230D02E49E7
:102F60006031206888422BD02B4978312068884214
:102F700026D02A492068884222D028491431206866
:102F800088421DD0254928312068884218D023491D
:102F90003C312068884213D0204950312068884253
:102FA0000ED01E4964312068884209D01B4978310F
:102FB0002068884204D019498C312068884201D1A8
:102FC000012000E0002000B32046FDF729FFA068A3
:102FD000802801D1002060602079216E0860D4E94A
:102FE00019104860606860B16068082809D82046F8
:102FF000FDF778FF0020E16E0860D4E91C104860FE
:1030000003E00020E0662067606700206065012023
:1030100084F83500002081E540040240085402583D
:103020002DE9F04104460D4616461F464FF00008B4
:1030300014B90120BDE8F08100BF94F834000128E4
:1030400001D10220F6E7012084F8340000BF94F893
:10305000350001287ED1022084F83500002060650B
:10306000E4492068884249D0E24918312068884202
:1030700044D0E0493031206888423FD0DD494831B2
:10308000206888423AD0DB4960312068884235D0D8
:10309000D84978312068884230D0D64990312068AC
:1030A00088422BD0D349A8312068884226D0D24903
:1030B0002068884222D0D0491831206888421DD02B
:1030C000CD4930312068884218D0CB49483120683A
:1030D000884213D0C8496031206888420ED0C64962
:1030E00078312068884209D0C349903120688842ED
:1030F00004D0C149A8312068884206D12068006800
:1031000020F001002168086005E02068006820F0D8
:103110000100216808603B46324629462046FDF7FB
:1031200085FFB449206888424BD0B24918312068E5
:10313000884246D0AF4930312068884241D0AD49FD
:103140004831206888423CD0AA49603120688842D2
:1031500037D000E042E1A74978312068884230D07A
:10316000A4499031206888422BD0A249A831206818
:10317000884226D0A0492068884222D09E49183132
:10318000206888421DD09C4930312068884218D080
:10319000994948312068884213D0974960312068A6
:1031A00088420ED0944978312068884209D09249EB
:1031B00090312068884204D08F49A8312068884225
:1031C00001D1012000E0002080B12068006820F0DB
:1031D0001E0040F0160021680860206CB0B1206825
:1031E000006840F00800216808600FE0206800686F
:1031F00020F00E0040F00A0021680860206C28B121
:103200002068006840F0040021680860794920685F
:10321000884270D077491831206888426BD0754950
:1032200030312068884266D072494831206888422F
:1032300061D070496031206888425CD06D49783136
:103240002068884257D06B4990312068884252D01C
:103250006849A831206888424DD067492068884273
:1032600049D0654918312068884244D062493031DC
:10327000206888423FD060494831206888423AD06F
:103280005D4960312068884235D05B4978312068DB
:10329000884230D058499031206888422BD0564916
:1032A000A8312068884226D054492068884222D01C
:1032B00052491431206888421DD050492831206875
:1032C000884218D04D493C312068884213D04B4980
:1032D0005031206888420ED04849643120688842C5
:1032E00009D0464978312068884204D043498C315E
:1032F0002068884201D1012000E0002090B1206EBA
:10330000006800F4803028B1206E006840F48070BE
:10331000216E0860E06E28B1E06E006840F48070B5
:10332000E16E086033492068884249D0314918313C
:103330002068884244D02F493031206888423FD0ED
:103340002C494831206888423AD02A4960312068A7
:10335000884235D0274978312068884230D02549C5
:103360009031206888422BD02249A83120688842B9
:1033700026D021492068884222D01F491831206870
:1033800088421DD01C4930312068884218D01A4923
:1033900048312068884213D017496031206888423C
:1033A0000ED0154978312068884209D012499031F1
:1033B0002068884204D01049A8312068884206D18C
:1033C0002068006840F001002168086010E0206873
:1033D000006840F001002168086009E04FF40060D7
:1033E000606500BF002084F8340000BF4FF0010882
:1033F00040461FE6100002401004024008540258E4
:1034000070B5044600F020F906462546681C10B148
:1034100004480078054400BF00F016F9801BA8425C
:10342000FAD370BD0C000024F8B502460B4600210B
:103430006D4DD2E001278F401E6806EA0704002C7C
:1034400072D01E7906F00306012E04D01E7906F014
:103450000306022E13D190684F000326BE40B043EE
:103460004F00DE68BE4030439060506801268E40B9
:10347000B0431E79C6F300168E40304350601E796B
:1034800006F00306032E09D0D0684F000326BE4085
:10349000B0434F009E68BE403043D0601E7906F0B6
:1034A0000306022E13D1CF0802F1200656F827009A
:1034B0004E07F70E0F26BE40B0434F07FF0E1E69A2
:1034C000BE403043CF0802F1200646F827001068BE
:1034D0004F000326BE40B0431E7906F003064F009E
:1034E000BE40304310605E6806F44036002E73D054
:1034F00000BF3E4E366846F002063C4F3E603E46F8
:10350000366806F00206009600BF00BF384E8F08EE
:1035100056F827008E07370F0F26BE40B043354EB2
:10352000B24202D1002629E056E0334EB24201D128
:10353000012623E0314EB24201D102261EE0304E78
:10354000B24201D1032619E02E4EB24201D1042627
:1035500014E02D4EB24201D105260FE02B4EB242AF
:1035600001D106260AE02A4EB24201D1072605E023
:10357000284EB24201D1092600E00A268F073F0FEC
:10358000BE4030431A4E8F0846F827004FF0B04631
:103590003068A0435E6806F4801606B120434FF001
:1035A000B04630607068A0435E6806F4001606B14D
:1035B00020434FF0B04670606868A0435E6806F430
:1035C000003606B1204368602868A0435E6806F4B0
:1035D000803606B120432860491C1E68CE40002E6C
:1035E0007FF428AFF8BD000080000058F444025872
:1035F000080400580000025800040258000802584D
:10360000000C02580010025800140258001802580A
:10361000001C025800240258024613690B400BB1EB
:10362000012000E00020704710B5426921EA020342
:1036300002EA010443EA0443836110BD0AB18161D7
:1036400001E00B0483617047014800687047000087
:10365000040000240348006803490978084401492C
:1036600008607047040000240C00002410B50320FB
:1036700000F04AF902F030F910490968C1F303215A
:103680000F4A515C01F01F0120FA01F40B48006859
:1036900000F00F001146085C00F01F0024FA00F053
:1036A00008490860084804600F2000F00FF808B1CE
:1036B000012010BD00F0BEF80020FAE718440258BF
:1036C000949F05081400002410000024F0B58BB06E
:1036D0000446102C0AD200222146362000F0D6F8EB
:1036E000362000F0BFF81C48046002E001200BB057
:1036F000F0BD00BF1948006840F01000174908608D
:103700000846006800F01000019000BF00BF02A949
:1037100003A802F061F8089E1EB902F0B9F8054648
:1037200002E002F0B5F845000D48B5FBF0F0471E89
:103730000C480D49086040F2E7310B48C160476012
:1037400000210161816003F0BCFD18B9064803F057
:10375000F1FDCCE70120CAE708000024E844025844
:1037600040420F0000100040840500244178154AB3
:10377000116014490831096821F00101114A083229
:103780001160121F41681160017B0907C27A41EA8A
:103790000261827A41EAC241427B41EA8241827BF4
:1037A00041EA4241C27B41EA0241427A41EA0221B6
:1037B000027A41EA420102781143024A083211605A
:1037C0007047000098ED00E000BF00BF00BFBFF3EE
:1037D0005F8F00BF00BF00BF0548006820F4803045
:1037E00003490860002002497031086070470000FA
:1037F00024ED00E040F001010D4A11600C497039E0
:10380000096841F480310A4A703A116000BF00BF74
:1038100000BFBFF34F8F00BF00BF00BF00BF00BF9E
:1038200000BFBFF36F8F00BF00BF00BF7047000035
:1038300094ED00E008B500BF0948006840F00200C0
:10384000074908600846006800F00200009000BFC9
:1038500000BF00220F21901E00F018F808BD0000E4
:10386000F44402580146084600280DDB00BF00BFA3
:1038700000F01F0301229A4043099B0003F1E0235B
:10388000C3F8002100BF00BF00BF70472DE9F05F03
:1038900080460D46164609F029FC074639462A4659
:1038A000334601F00700C0F1070ABAF1040F02D94C
:1038B0004FF0040A01E0C0F1070AD14600F1040A02
:1038C000BAF1070F02D24FF0000A01E0A0F1030A9B
:1038D000D4464FF0010A0AFA09FAAAF1010A0AEAE3
:1038E000020A0AFA0CFA4FF0010B0BFA0CFBABF1CF
:1038F000010B0BEA030B4AEA0B042146404609F090
:10390000FDFBBDE8F09F000000BF00F00702064B82
:1039100019684FF6FF031940044B0B4343EA022199
:10392000014B196000BF70470CED00E00000FA0584
:1039300070B5044615480068C0F3800048B91348C4
:10394000006800F00700A04201D0012070BD0020F7
:10395000FCE70E48006820F0070020430B49086090
:10396000FFF772FE054607E0FFF76EFE401BB0F55D
:103970007A7F01D90120E9E7044808380068C0F3DC
:1039800040300028F0D00020E0E700000C4802584A
:1039900010B501F057FF05490968C1F30211044A47
:1039A000515C01F01F01C84010BD000020440258C6
:1039B000949F050870B50146844D2D6805F00303FA
:1039C000824D2D68C5F30510804D2D1D2D6805F025
:1039D00001047E4D0C352D68C5F3CC0515FB04F5AF
:1039E00001EE105AB8EE411AF0EE410A00286FD0ED
:1039F00023B1012B4ED0022B6BD16BE0734D283DD0
:103A00002D68C5F340153DB3704D283D2D68C5F3B5
:103A1000C1066F4D25FA06F201EE102AF8EE411AA2
:103A200001EE100AB8EE411A81EE812A9FED691A63
:103A3000C0EE811A654D08352D68C5F3080501EE05
:103A4000105AB8EE411A31EE811AF7EE001A31EE33
:103A5000211A22EE010A1CE001EE100AB8EE411A0A
:103A6000DFED5D1A81EE812A9FED5A1AC0EE811AB0
:103A7000564D08352D68C5F3080501EE105AB8EE0D
:103A8000411A31EE811AF7EE001A31EE211A22EEB8
:103A9000010A5BE001EE100AB8EE411ADFED4F1AA1
:103AA00081EE812A9FED4B1AC0EE811A474D0835F1
:103AB0002D68C5F3080501EE105AB8EE411A31EE33
:103AC000811AF7EE001A31EE211A22EE010A3DE0CA
:103AD00077E01DE001EE100AB8EE411A9FED402A92
:103AE000C2EE011A9FED3B1A80EE812A374D083550
:103AF0002D68C5F3080501EE105AB8EE411A32EEF2
:103B0000011AB7EE002A31EE021A21EE810A1DE0F9
:103B100001EE100AB8EE411ADFED2F1A81EE812A6C
:103B20009FED2C1AC0EE811A284D08352D68C5F37B
:103B3000080501EE105AB8EE411A31EE811AF7EE7F
:103B4000001A31EE211A22EE010A00BF00BF1F4DFC
:103B500008352D68C5F3462501EE105AB8EE411A16
:103B6000F7EE001A31EE211AC0EE011ABCEEE11A8E
:103B700081ED001A154D08352D68C5F3064501EE97
:103B8000105AB8EE411AF7EE001A31EE211AC0EEC3
:103B9000011ABCEEE11A81ED011A0C4D08352D68B1
:103BA000C5F3066501EE105AB8EE411AF7EE001A99
:103BB00031EE211AC0EE011ABCEEE11A81ED021AB3
:103BC00003E000250D604D608D6070BD28440258F3
:103BD0000090D003000000460024744C0024744A76
:103BE00020BCBE4B70B50146844D2D6805F0030323
:103BF000824D2D68C5F30530804D2D1D2D68C5F310
:103C000000147E4D14352D68C5F3CC0515FB04F565
:103C100001EE105AB8EE411AF0EE410A00286FD0BA
:103C200023B1012B4ED0022B6BD16BE0734D283D9D
:103C30002D68C5F340153DB3704D283D2D68C5F383
:103C4000C1066F4D25FA06F201EE102AF8EE411A70
:103C500001EE100AB8EE411A81EE812A9FED691A31
:103C6000C0EE811A654D10352D68C5F3080501EECB
:103C7000105AB8EE411A31EE811AF7EE001A31EE01
:103C8000211A22EE010A1CE001EE100AB8EE411AD8
:103C9000DFED5D1A81EE812A9FED5A1AC0EE811A7E
:103CA000564D10352D68C5F3080501EE105AB8EED3
:103CB000411A31EE811AF7EE001A31EE211A22EE86
:103CC000010A5BE001EE100AB8EE411ADFED4F1A6F
:103CD00081EE812A9FED4B1AC0EE811A474D1035B7
:103CE0002D68C5F3080501EE105AB8EE411A31EE01
:103CF000811AF7EE001A31EE211A22EE010A3DE098
:103D000077E01DE001EE100AB8EE411A9FED402A5F
:103D1000C2EE011A9FED3B1A80EE812A374D103515
:103D20002D68C5F3080501EE105AB8EE411A32EEBF
:103D3000011AB7EE002A31EE021A21EE810A1DE0C7
:103D400001EE100AB8EE411ADFED301A81EE812A39
:103D50009FED2C1AC0EE811A284D10352D68C5F341
:103D6000080501EE105AB8EE411A31EE811AF7EE4D
:103D7000001A31EE211A22EE010A00BF00BF1F4DCA
:103D800010352D68C5F3462501EE105AB8EE411ADC
:103D9000F7EE001A31EE211AC0EE011ABCEEE11A5C
:103DA00081ED001A154D10352D68C5F3064501EE5D
:103DB000105AB8EE411AF7EE001A31EE211AC0EE91
:103DC000011ABCEEE11A81ED011A0C4D10352D6877
:103DD000C5F3066501EE105AB8EE411AF7EE001A67
:103DE00031EE211AC0EE011ABCEEE11A81ED021A81
:103DF00003E000250D604D608D6070BD28440258C1
:103E00000090D003000000460024744C0024744A43
:103E100020BCBE4B70B50146844D2D6805F00303F0
:103E2000824D2D68C5F30550804D2D1D2D68C5F3BD
:103E300000247E4D1C352D68C5F3CC0515FB04F51B
:103E400001EE105AB8EE411AF0EE410A00286FD088
:103E500023B1012B4ED0022B6BD16BE0734D283D6B
:103E60002D68C5F340153DB3704D283D2D68C5F351
:103E7000C1066F4D25FA06F201EE102AF8EE411A3E
:103E800001EE100AB8EE411A81EE812A9FED691AFF
:103E9000C0EE811A654D18352D68C5F3080501EE91
:103EA000105AB8EE411A31EE811AF7EE001A31EECF
:103EB000211A22EE010A1CE001EE100AB8EE411AA6
:103EC000DFED5D1A81EE812A9FED5A1AC0EE811A4C
:103ED000564D18352D68C5F3080501EE105AB8EE99
:103EE000411A31EE811AF7EE001A31EE211A22EE54
:103EF000010A5BE001EE100AB8EE411ADFED4F1A3D
:103F000081EE812A9FED4B1AC0EE811A474D18357C
:103F10002D68C5F3080501EE105AB8EE411A31EECE
:103F2000811AF7EE001A31EE211A22EE010A3DE065
:103F300077E01DE001EE100AB8EE411A9FED402A2D
:103F4000C2EE011A9FED3B1A80EE812A374D1835DB
:103F50002D68C5F3080501EE105AB8EE411A32EE8D
:103F6000011AB7EE002A31EE021A21EE810A1DE095
:103F700001EE100AB8EE411ADFED301A81EE812A07
:103F80009FED2C1AC0EE811A284D18352D68C5F307
:103F9000080501EE105AB8EE411A31EE811AF7EE1B
:103FA000001A31EE211A22EE010A00BF00BF1F4D98
:103FB00018352D68C5F3462501EE105AB8EE411AA2
:103FC000F7EE001A31EE211AC0EE011ABCEEE11A2A
:103FD00081ED001A154D18352D68C5F3064501EE23
:103FE000105AB8EE411AF7EE001A31EE211AC0EE5F
:103FF000011ABCEEE11A81ED011A0C4D18352D683D
:10400000C5F3066501EE105AB8EE411AF7EE001A34
:1040100031EE211AC0EE011ABCEEE11A81ED021A4E
:1040200003E000250D604D608D6070BD284402588E
:104030000090D003000000460024744C0024744A11
:1040400020BCBE4B2DE9F04389B006460F464FF425
:10405000807186EA0100384370D1F748006800F0AB
:104060000709B9F1050F65D2DFE809F003122162F3
:104070003000F1485038006800F00070B0F1007F67
:1040800004D106A8FFF796FC079C00E0002453E04B
:10409000E9485038006800F00060B0F1006F04D1CA
:1040A00003A8FFF79FFD039C00E0002444E0E248E2
:1040B0005038006800F00050B0F1005F04D168464D
:1040C000FFF7A8FE009C00E0002435E0DA48001F5E
:1040D000006800F04055D8485038006800F00400EF
:1040E000042809D145B9D44850380068C0F3C1014B
:1040F000D24820FA01F41AE0CF485038006800F4A2
:104100008070B0F5807F04D1B5F1805F01D1CC4CD7
:104110000DE0C9485038006800F40030B0F5003FA9
:1041200004D1B5F1005F01D1C64C00E0002403E0EA
:10413000C54C01E0002400BF4BE3FFE74FF4806172
:1041400086EA010038437BD1BB480830006800F4A0
:104150006009B9F5800F2CD006DCB9F1000F0AD048
:10416000B9F5001F69D115E0B9F5C00F63D0B9F5F5
:10417000000F62D12CE0B0485038006800F00070A9
:10418000B0F1007F04D106A8FFF714FC079C00E003
:10419000002454E0A8485038006800F00060B0F1F6
:1041A000006F04D103A8FFF71DFD039C00E000246D
:1041B00045E0A1485038006800F00050B0F1005FC1
:1041C00004D16846FFF726FE009C00E0002436E09C
:1041D0009948001F006800F0405597485038006823
:1041E00000F00400042809D145B99348503800680C
:1041F000C0F3C101914820FA01F41BE08E48503809
:10420000006800F48070B0F5807F04D1B5F1805F64
:1042100001D18B4C0EE088485038006800F4003023
:10422000B0F5003F05D1B5F1005F02D1854C01E04A
:1042300006E0002403E0844C01E0002400BFC8E253
:104240004FF4006186EA010038437BD17A48083098
:10425000006800F0E069B9F1007F2CD006DCB9F10C
:10426000000F0AD0B9F1807F69D115E0B9F1407F24
:1042700063D0B9F1806F62D12CE06F48503800688C
:1042800000F00070B0F1007F04D106A8FFF792FBA8
:10429000079C00E0002454E067485038006800F0B4
:1042A0000060B0F1006F04D103A8FFF79BFC039CF2
:1042B00000E0002445E060485038006800F00050FD
:1042C000B0F1005F04D16846FFF7A4FD009C00E058
:1042D000002436E05848001F006800F0405556485A
:1042E0005038006800F00400042809D145B952484C
:1042F00050380068C0F3C101504820FA01F41BE0B7
:104300004D485038006800F48070B0F5807F04D1CB
:10431000B5F1805F01D14A4C0EE047485038006843
:1043200000F40030B0F5003F05D1B5F1005F02D1D7
:10433000444C01E006E0002403E0434C01E000248B
:1043400000BF46E24FF4805186EA0100384372D143
:104350003948006800F4E048B8F5005F2CD006DC6E
:10436000B8F1000F0AD0B8F5805F75D115E0B8F547
:10437000405F6FD0B8F5804F6ED12CE02E4850389A
:10438000006800F00070B0F1007F04D106A8FFF7CC
:1043900011FB079C00E0002460E0274850380068CB
:1043A00000F00060B0F1006F04D103A8FFF71AFC21
:1043B000039C00E0002451E01F485038006800F0E2
:1043C0000050B0F1005F04D16846FFF723FD009C68
:1043D00000E0002442E01848001F006800F040554B
:1043E00015485038006800F00400042809D145B988
:1043F000114850380068C0F3C101104820FA01F498
:1044000027E00D485038006800F48070B0F5807FD8
:1044100004D1B5F1805F01D1094C1AE0064850384B
:10442000006800F40030B0F5003F11D1B5F1005F35
:104430000ED1044C0DE012E0504402580090D0031D
:1044400000093D0040787D010080BB0004E001E0F0
:10445000002403E0E14C01E0002400BFB9E14FF487
:10446000005186EA0100384367D1DD48006800F456
:10447000E028B8F5403F33D009DCB8F1000F0DD08B
:10448000B8F5803F0ED0B8F5003F53D119E0B8F52C
:10449000802F37D0B8F5A02F4CD13FE001F0F8F9CC
:1044A000044649E0CE485038006800F00060B0F1A2
:1044B000006F04D103A8FFF795FB049C00E00024E3
:1044C0003AE0C7485038006800F00050B0F1005F93
:1044D00004D16846FFF79EFC019C00E000242BE01D
:1044E000BF485038006800F00400042808D1BC48D8
:1044F00050380068C0F3C101BA4820FA01F400E066
:10450000002419E0B6485038006800F48070B0F517
:10451000807F01D1B44C00E000240DE0B048503859
:10452000006800F40030B0F5003F01D1AF4C00E06E
:10453000002401E0002400BF4BE14FF4002186EA93
:104540000100384361D1A6480830006800F44038C3
:10455000B8F1000F06D0B8F5803F12D0B8F5003F93
:1045600050D11DE09E485038006800F00060B0F166
:10457000006F04D103A8FFF735FB039C00E0002483
:1045800042E097485038006800F00050B0F1005FFA
:1045900004D16846FFF73EFC029C00E0002433E0B3
:1045A0008F48001F006800F040558D485038006863
:1045B00000F00400042809D145B989485038006842
:1045C000C0F3C101874820FA01F41AE0844850384A
:1045D000006800F48070B0F5807F04D1B5F1805F91
:1045E00001D1814C0DE07E485038006800F4003065
:1045F000B0F5003F04D1B5F1005F01D17B4C00E084
:10460000002401E0002400BFE3E04FF4803186EA9B
:10461000010038432CD17248001F006800F4803834
:10462000B8F1000F03D0B8F5803F1ED10EE06C4802
:104630005038006800F00070B0F1007F04D106A887
:10464000FFF7B8F9079C00E0002410E064485038F8
:10465000006800F00060B0F1006F04D103A8FFF71C
:10466000C1FA059C00E0002401E0002400BFB0E096
:104670004FF4804186EA0100384368D15848083039
:10468000006800F0E048B8F1405F33D009DCB8F1D1
:10469000000F0DD0B8F1805F0ED0B8F1005F53D19C
:1046A00019E0B8F1804F37D0B8F1A04F4CD13FE0BE
:1046B000FFF76EF9044649E049485038006800F0B9
:1046C0000060B0F1006F04D103A8FFF78BFA049CDF
:1046D00000E000243AE042485038006800F0005002
:1046E000B0F1005F04D16846FFF794FB019C00E045
:1046F00000242BE03A485038006800F004000428F9
:1047000008D1374850380068C0F3C101354820FA55
:1047100001F400E0002419E031485038006800F44A
:104720008070B0F5807F01D12F4C00E000240DE0B7
:104730002B485038006800F40030B0F5003F01D13C
:104740002A4C00E0002401E0002400BF41E04FF4C7
:10475000004186EA010038433AD12148006800F060
:104760004058B8F1000F06D0B8F1805F0FD0B8F113
:10477000005F2AD11AE01A485038006800F400306F
:10478000B0F5003F01D1194C00E000241FE01448AF
:104790005038006800F00070B0F1007F04D106A826
:1047A000FFF708F9079C00E0002410E00C4850389F
:1047B000006800F00060B0F1006F04D103A8FFF7BB
:1047C00011FA049C00E0002401E0002400BF00E096
:1047D0000024204609B0BDE8F08300000080BB0043
:1047E000504402580090D00300093D0040787D01FC
:1047F0002DE9F04104460025A8464FF00062D4E9B7
:10480000001011400020134659404040014331D16F
:10481000606E48B1B0F5801F0DD0B0F5001F11D00B
:10482000B0F5401F16D114E0FE48006840F4003097
:10483000FC49086010E0022104F1080004F0E6FBE6
:10484000054609E0022104F1280004F091FC054628
:1048500002E001E0012500BF00BF55B9F148243056
:10486000006820F44010616E0843EE49243108606E
:1048700000E0A8464FF48072D4E9001011400020F7
:1048800013465940404001432ED1A06D05281BD24C
:10489000DFE800F0030A11181900E248006840F44C
:1048A0000030E049086011E0002104F1080004F044
:1048B000ADFB05460AE0002104F1280004F058FC95
:1048C000054603E002E001E0012500BF00BF55B945
:1048D000D4482430006820F00700A16D0843D14976
:1048E0002431086000E0A8464FF48062D4E900104B
:1048F0001140002013465940404001433DD1D4F8B7
:10490000A400B0F5C00F24D007DC68B1B0F5001FDB
:1049100011D0B0F5800F1FD114E0B0F5000F19D001
:10492000B0F5200F18D116E0BE48006840F4003002
:10493000BC49086012E0002104F1080004F066FBA5
:1049400005460BE0002104F1280004F011FC0546A7
:1049500004E003E002E001E0012500BF00BF5DB913
:10496000B0482C30006820F46000D4F8A41008434C
:10497000AC492C31086000E0A8464FF40062D4E94D
:1049800000011040002113465840494008433DD1E2
:10499000D4F8A800B0F1407F24D007DC68B1B0F1B2
:1049A000807F11D0B0F1007F1FD114E0B0F1806F93
:1049B00019D0B0F1A06F18D116E09A48006840F401
:1049C00000309849086012E0002104F1080004F06A
:1049D0001DFB05460BE0002104F1280004F0C8FB94
:1049E000054604E003E002E001E0012500BF00BF4E
:1049F0005DB98C482C30006820F0E060D4F8A81035
:104A0000084388492C31086000E0A8464FF0007345
:104A1000D4E900101940002059404040014328D1FA
:104A2000E06CA8B1102804D0202809D0302810D17B
:104A30000DE07C48006840F400307A4908600AE0E4
:104A4000022104F1080004F0E1FA054603E002E067
:104A500001E0012500BF00BF55B972482030006851
:104A600020F03000E16C08436E492031086000E01E
:104A7000A8464FF48053D4E9001019400020594053
:104A80004040014337D1E06DB0F5005F1AD004DC3F
:104A900050B1B0F5805F1ED10DE0B0F5405F18D089
:104AA000B0F5804F17D115E05E48006840F4003043
:104AB0005C49086011E0002104F1080004F0A6FA46
:104AC00005460AE0002104F1280004F051FB0546E8
:104AD00003E002E001E0012500BF00BF55B95148E5
:104AE0002430006820F4E040E16D08434D49243152
:104AF000086000E0A8464FF40053D4E900101940C4
:104B0000002059404040014335D1206EB0F5403F70
:104B10001ED007DC68B1B0F5803F0BD0B0F5003F88
:104B200019D10EE0B0F5802F13D0B0F5A02F12D11F
:104B300010E012E0012104F1080004F067FA0546D4
:104B40000BE0012104F1280004F012FB054604E00B
:104B500003E002E001E0012500BF00BF55B9314884
:104B60002430006820F4E020216E08432D492431D0
:104B7000086000E0A8464FF48042D4E900011040EC
:104B80000021134658404940084337D1D4F8AC00BF
:104B9000B0F1405F1ED007DC68B1B0F1805F0BD090
:104BA000B0F1005F19D10EE0B0F1804F13D0B0F139
:104BB000A04F12D110E012E0012104F1080004F02E
:104BC00025FA05460BE0012104F1280004F0D0FA93
:104BD000054604E003E002E001E0012500BF00BF5C
:104BE0005DB910482C30006820F0E040D4F8AC10DB
:104BF00008430C492C31086000E0A8464FF40043FC
:104C0000D4E90001184000215840494008432AD106
:104C1000E06EB8B1B0F1805F06D0B0F1005F12D1A4
:104C200009E000002C440258F948006840F40030C4
:104C3000F749086009E0012104F1080004F0E6F9F1
:104C4000054602E001E0012500BF00BF55B9F0486C
:104C50002430006820F04050E16E0843EC492431D4
:104C6000086000E0A8464FF08073D4E900101940B6
:104C7000002059404040014328D1A06CA8B1012830
:104C800004D0022809D0032810D10DE0E0480068C4
:104C900040F40030DE4908600AE0022104F1080017
:104CA00004F0B4F9054603E002E001E0012500BF8D
:104CB00000BF55B9D6482030006820F00300A16C31
:104CC0000843D3492031086000E0A8464FF4800330
:104CD000D4E90010194000205940404001437DD1E3
:104CE000CC48006840F48070CA490860FEF7ACFC0C
:104CF000064606E0FEF7A8FC801B642801D90325C0
:104D000005E0C448006800F480700028F2D000BFBD
:104D100085BBBF484430006800F44070B4F8B01060
:104D200001F44071884213D0B9484430006820F43F
:104D30004077B7484430006840F48030B44944318B
:104D400008600846006820F4803008600846076064
:104D5000D4F8B000B0F5807F15D1FEF775FC06469B
:104D600009E0FEF771FC801B41F28831884202D9CC
:104D7000032507E038E0A64844300068C0F340004F
:104D80000028EED000BF55BB00BFB4F8B00000F45F
:104D90004070B0F5407F0ED19D481C38006820F46B
:104DA0007C519D4AD4F8B000104041EA1010984957
:104DB0001C39086007E096481C38006820F47C50D5
:104DC00093491C390860924844300068B4F8B01028
:104DD000C1F30B0108438E49443101E005E001E0D5
:104DE000086002E0A84600E0A8460122D4E90001DC
:104DF00010400021134658404940084330D1A06F6D
:104E000018281AD005DC48B1082808D0102817D176
:104E10000CE0202812D0282812D110E012E0012145
:104E200004F1080004F0F2F805460BE0012104F15A
:104E3000280004F09DF9054604E003E002E001E0EB
:104E4000012500BF00BF55B971482830006820F027
:104E50003800A16F08436E492831086000E0A84679
:104E60000223D4E90010194000205940404001437A
:104E700029D1606F062816D2DFE800F003040B1278
:104E8000131412E0012104F1080004F0BFF80546F4
:104E90000BE0012104F1280004F06AF9054604E062
:104EA00003E002E001E0012500BF00BF55B958480A
:104EB0002830006820F00700616F0843544928310A
:104EC000086000E0A8460422D4E900101140002048
:104ED00013465940404001432BD1D4F89000062896
:104EE00016D2DFE800F003040B12131412E00121C4
:104EF00004F1080004F08AF805460BE0012104F1F2
:104F0000280004F035F9054604E003E002E001E082
:104F1000012500BF00BF5DB93D482C30006820F07E
:104F20000700D4F89010084339492C31086000E09C
:104F3000A8462023D4E900011840002158404940E8
:104F4000084337D1D4F88C00B0F1405F1ED007DCA5
:104F500068B1B0F1805F0BD0B0F1005F19D10EE005
:104F6000B0F1804F13D0B0F1A04F12D110E012E099
:104F7000002104F1080004F049F805460BE0022185
:104F800004F1280004F0F4F8054604E003E002E030
:104F900001E0012500BF00BF5DB91D482830006851
:104FA00020F0E040D4F88C100843194928310860FB
:104FB00000E0A8464023D4E90010194000205940E1
:104FC000404001433CD1D4F89800B0F5406F25D063
:104FD00007DC68B1B0F5806F0BD0B0F5006F20D161
:104FE0000EE0B0F5805F1AD0B0F5A05F19D117E0E0
:104FF00019E0002104F1080004F008F8054612E069
:10500000022104F1280004F0B3F805460BE000008B
:105010002C44025800480258FFFCFF0F03E002E056
:1050200001E0012500BF00BF4DB9FE48006820F433
:10503000E050D4F898100843FA49086000E0A84608
:105040008023D4E90010194000205940404001431A
:1050500035D1D4F89C00B0F5C04F1ED007DC68B144
:10506000B0F5005F0BD0B0F5804F19D10EE0B0F570
:10507000004F13D0B0F5204F12D110E012E0002104
:1050800004F1080003F0C2FF05460BE0022104F121
:10509000280004F06DF8054604E003E002E001E0BA
:1050A000012500BF00BF4DB9DE48006820F4604014
:1050B000D4F89C100843DB49086000E0A8460823A8
:1050C000D4E900011840002158404940084317D155
:1050D000D4F88000B0F5805F07D1022104F12800E8
:1050E00004F046F808B14FF00108CE48001F0068F0
:1050F00020F44050D4F880100843CA49091F0860C2
:105100001023D4E9000118400021584049400843C9
:1051100015D1D4F89400B0F5807F07D1022104F1B5
:10512000280004F025F808B14FF00108BD480068D8
:1051300020F44070D4F894100843BA4908604FF442
:105140000023D4E900011840002158404940084399
:1051500027D1D4F8A00030B1B0F5803F0AD0B0F527
:10516000003F0FD10DE0002104F1080003F04EFFD5
:10517000054609E0022104F1280003F0F9FF054685
:1051800002E001E0012500BF00BF4DB9A54800685D
:1051900020F44030D4F8A0100843A249086000E091
:1051A000A8464FF48023D4E900011840002158405C
:1051B000494008432DD1D4F88400B0F5801F06D0B3
:1051C000B0F5001F0CD0B0F5401F11D10FE095488D
:1051D0002C38006840F4003092492C39086009E00E
:1051E000012104F1280003F0C3FF054602E001E0BD
:1051F000012500BF00BF5DB98A48001F006820F488
:105200004010D4F8841008438649091F086000E064
:10521000A8464FF48032D4E9000110400021134623
:1052200058404940084325D1206D18B1B0F5803F62
:1052300010D108E07B482C38006840F400307949F0
:105240002C39086008E0022104F1080003F0DEFEBA
:10525000054601E0012500BF00BF55B971480C3873
:10526000006820F48030216D08436E490C390860D5
:1052700000E0A8464FF00053D4E900101940002088
:1052800059404040014307D1022104F1280003F0B6
:105290006FFF08B14FF001084FF40032D4E900016C
:1052A00010400021134658404940084327D1E06F81
:1052B000A0B1B0F5807F06D0B0F5007F0CD0B0F57E
:1052C000407F0CD109E057482C38006840F400308A
:1052D00054492C39086004E003E002E001E00125B4
:1052E00000BF00BF55B94F48001F006820F4407050
:1052F000E16F08434B49091F086000E0A8464FF4DE
:105300008012D4E90010114000201346594040405B
:10531000014309D143480838006820F00040216F5C
:1053200008434049083908604FF40013D4E90001EC
:105330001840002158404940084309D139480838ED
:10534000006820F08070A16E084336490839086073
:105350004FF08043D4E900101940002059404040EC
:10536000014311D100BF2F484838006820F40040A5
:105370002C494839086008460068D4F8B41008433E
:1053800028494839086000BF4FF00042D4E90001C5
:1053900010400021134658404940084309D1214894
:1053A0000C38006820F04050616D08431D490C39ED
:1053B00008604FF40002D4E90010114000201346A9
:1053C0005940404001430AD11648001F006820F4AC
:1053D0004000D4F8881008431249091F08600122D0
:1053E00000216068104049405040014306D104F15B
:1053F000080003F00BFE054605B1A8460222002175
:105400006068104049405040014307D1012104F138
:10541000080003F0FBFD054605B1A8460423002063
:10542000616801E05844025819400422404051404C
:10543000084307D1022104F1080003F0E7FD054607
:1054400005B1A846082300206168194008224040A1
:105450005140084307D1002104F1280003F088FEE1
:10546000054605B1A84610230020616819401022A6
:1054700040405140084307D1012104F1280003F0C6
:1054800077FE054605B1A84620220021606810403D
:1054900049405040014307D1022104F1280003F0A4
:1054A00067FE054605B1A846B8F1000F02D10020FD
:1054B000BDE8F0810120FBE72DE9F04104460D46EF
:1054C00014B90120BDE8F081BD48006800F00F006C
:1054D000A8420ED2BA48006820F00F002843B8490D
:1054E00008600846006800F00F00A84201D00120C3
:1054F000E8E7207800F0040004280ED1B1492069C3
:10550000096801F07001884207D9AE48006820F0B0
:10551000700021690843AB490860207800F008005A
:10552000082811D1A749091D6069096801F07001B7
:10553000884209D9A348001D006820F07000616905
:105540000843A049091D0860207800F010001028C9
:1055500011D19C49091DA069096801F4E0618842E4
:1055600009D99848001D006820F4E060A16908434B
:105570009449091D0860207800F02000202811D1EE
:1055800090490831E069096801F07001884209D941
:105590008C480830006820F07000E16908438949B0
:1055A00008310860207800F0020002280ED18549F9
:1055B000E068096801F00F01884207D98148006856
:1055C00020F00F00E16808437E490860207800F071
:1055D0000100002850D07B48006820F47060A1686A
:1055E0000843784908606068022807D17548183870
:1055F0000068C0F34040F8B9012063E76068032801
:1056000007D1704818380068C0F34060A0B9012085
:1056100058E76068012807D16A4818380068C0F365
:10562000002048B901204DE7664818380068C0F3EB
:10563000800008B9012045E762480838006820F07A
:105640000700616808435F4908390860FDF7FCFFFF
:10565000064608E0FDF7F8FF801B41F288318842DA
:1056600001D903202EE757480838006800F03800B9
:105670006168B0EBC10FEDD1207800F00200022884
:105680000ED15049E068096801F00F01884207D245
:105690004C48006820F00F00E16808434949086061
:1056A0004748006800F00F00A8420ED9444800683F
:1056B00020F00F002843424908600846006800F0C7
:1056C0000F00A84201D00120FCE6207800F0040081
:1056D00004280ED13B492069096801F07001884215
:1056E00007D23848006820F0700021690843354926
:1056F0000860207800F00800082811D13149091D00
:105700006069096801F07001884209D22D48001DC6
:10571000006820F07000616908432A49091D08608B
:10572000207800F01000102811D12649091DA06929
:10573000096801F4E061884209D22248001D00682E
:1057400020F4E060A16908431E49091D0860207823
:1057500000F02000202811D11A490831E0690968B9
:1057600001F07001884209D216480830006820F024
:105770007000E169084313490831086000F0ACF893
:1057800010490968C1F303210F4A515C01F01F0160
:1057900020FA01F70B48006800F00F001146085C82
:1057A00000F01F0027FA00F0084908600848076069
:1057B00008480068FDF78AFF8046404682E6000000
:1057C0000020005218440258949F05081400002439
:1057D00010000024080000243F220260174A1268CB
:1057E00002F007024260154A0832126802F4706241
:1057F0008260124A0832126802F00F02C2600F4A39
:105800000832126802F0700202610C4A0C3212680F
:1058100002F070024261094A0C32126802F4E0623E
:105820008261064A1032126802F07002C261044AB4
:10583000126802F00F020A6070470000104402581C
:105840000020005210B500F047F80D490968C1F377
:1058500003210C4A515C01F01F0120FA01F40848B1
:10586000006800F00F001146085C00F01F0024FAE9
:1058700000F005490860054804600846006810BD4E
:1058800018440258949F05081400002410000024B6
:1058900000B5FFF7D7FF05490968C1F30211044AB3
:1058A000515C01F01F01C84000BD00001C440258BB
:1058B000949F050800B5FFF7C5FF05490968C1F3C6
:1058C0000221044A515C01F01F01C84000BD0000E4
:1058D0001C440258949F0508F0B5824E366806F0C5
:1058E000380636B1082E15D0102E15D0182E7DD1C1
:1058F00014E07C4E103E3668C6F3401646B1794E31
:10590000103E3668C6F3C107774E26FA07F000E06E
:105910007548E5E07548E3E07548E1E0714E1836FA
:10592000366806F003046F4E18363668C6F3051164
:105930006C4E1C36366806F001056A4E2436366811
:10594000C6F3CC0616FB05F601EE106AB8EE410A66
:10595000002971D024B1012C50D0022C6DD16DE002
:10596000604E103E3668C6F340163EB35D4E103EA4
:105970003668C6F3C1075C4E26FA07F301EE103A0B
:10598000F8EE411A01EE101AB8EE411A81EE812AA2
:105990009FED581AC0EE011A524E20363668C6F3F3
:1059A000080601EE106AB8EE411A31EE811AF7EEE0
:1059B000001A31EE211A62EE010A1EE001EE101A01
:1059C000B8EE411ADFED4C1A81EE812A9FED491A9B
:1059D000C0EE011A434E20363668C6F3080601EEC3
:1059E000106AB8EE411A31EE811A00E076E0F7EE67
:1059F000001A31EE211A62EE010A5BE001EE101A84
:105A0000B8EE411A9FED3D2AC2EE011A9FED391AF8
:105A100080EE012A334E20363668C6F3080601EEC2
:105A2000106AB8EE411A32EE011AB7EE002A31EED2
:105A3000021A61EE810A3DE04EE01DE001EE101A0F
:105A4000B8EE411ADFED2E1A81EE812A9FED291A58
:105A5000C0EE011A234E20363668C6F3080601EE62
:105A6000106AB8EE411A31EE811AF7EE001A31EEE3
:105A7000211A62EE010A1DE001EE101AB8EE411A79
:105A80009FED1E2AC2EE011A9FED1A1A80EE012A1E
:105A9000144E20363668C6F3080601EE106AB8EEDA
:105AA000411A32EE011AB7EE002A31EE021A61EE07
:105AB000810A00BF00BF0B4E20363668C6F346266B
:105AC000721C01EE102AB8EE411AC0EE811ABCEE2B
:105AD000E11A11EE100A00E0002001E0034800BFC7
