:020000040800F2
:10000000B0200124A103000807A100085F930008A5
:1000100003A10008950C0008A5D700080000000007
:10002000000000000000000000000000E1020008E5
:1000300059130008000000003D030008FDB8000847
:10004000BF030008BF030008BF030008BF03000888
:10005000BF030008BF030008BF030008BF03000878
:10006000BF030008BF030008BF030008DD0D000840
:10007000BF030008BF030008BF030008BF03000858
:10008000BF030008BF030008BF030008BF03000848
:10009000BF030008BF030008BF030008BF03000838
:1000A000BF030008BF030008BF030008BF03000828
:1000B000BF030008BF030008BF030008BF03000818
:1000C000BF030008BF030008BF030008BF03000808
:1000D000BF03000895D70008BF030008BF0300084E
:1000E000BF030008BF03000800000000BF030008B2
:1000F000BF030008BF030008BF030008BF030008D8
:10010000BF030008D5A30008BF030008BF03000811
:10011000A9BE0008BF030008D5BA0008BF03000845
:10012000BF030008BF030008BF030008BF030008A7
:10013000BF030008BF030008BF030008BF03000897
:1001400000000000000000000000000000000000AF
:10015000BF030008BF030008BF030008BF03000877
:10016000BF030008BF030008BF030008BF03000867
:10017000BF030008BF030008BF0300080000000021
:10018000BF030008BF030008BF030008BF03000847
:10019000BF030008BF030008BF030008BF03000837
:1001A000BF030008BF030008BF03000800000000F1
:1001B000BF030008BF030008BF030008BF03000817
:1001C000BF030008BF03000800000000000000009B
:1001D0000000000000000000BF0300080000000055
:1001E000000000000000000000000000000000000F
:1001F0000000000000000000BF030008BF0300086B
:10020000BF030008BF03000800000000BF03000890
:10021000BF030008BF030008BF030008BF030008B6
:10022000BF03000800000000BF030008000000003A
:10023000BF030008BF03000800000000BF03000860
:10024000BF030008BF030008BF030008BF03000886
:10025000BF030008BF030008BF030008BF03000876
:10026000BF030008BF030008BF030008BF03000866
:10027000BF030008BF030008BF0300080000000020
:10028000BF030008BF030008BF030008BF03000846
:1002900000000000BF030008BF03000800000000CA
:1002A00000000000BF030008BF030008BF030008F0
:1002B000BF030008BF030008BF030008BF03000816
:1002C000BF030008BF030008BF030008DFF80CD01D
:1002D00000F026FB00480047116B0408B020012401
:1002E0002C4B19680868B0E8F04F80F30988BFF319
:1002F0006F8F4FF0000080F31188704700000000FE
:1003000008480068006880F308884FF0000080F318
:10031000148862B661B6BFF34F8FBFF36F8F00DFF3
:1003200000BF00BF08ED00E0DFF80C00016841F4F9
:1003300070010160704700BF88ED00E0EFF30980B5
:10034000BFF36F8F134B1A681EF0100F08BF20ED1C
:10035000108A20E9F04F106009B44FF0500080F38C
:100360001188BFF34F8FBFF36F8F58F0D5FC4FF05C
:10037000000080F3118809BC19680868B0E8F04FE4
:100380001EF0100F08BFB0EC108A80F30988BFF38D
:100390006F8F704718000024EFF30580704700004E
:1003A000074880470748804707480047FEE7FEE7C1
:1003B000FEE7FEE7FEE7FEE7FEE7FEE7FEE7FEE715
:1003C000B5140008C9B90008CD0200082DE9F05F96
:1003D0000546002092469B468846064681464024B4
:1003E0001BE0284641464746224600F0D1F85346D6
:1003F0005A46C01A914110D311461846224600F0C1
:10040000B8F82D1A67EB01084F462246012000215B
:1004100000F0AFF817EB00094E41201EA4F10104D3
:10042000DFDC484631462A464346BDE8F09F2DE9C9
:10043000F0410024061B254671F1000605DA01246F
:100440000027D0EB070067EB0101161E73F10006D1
:1004500005DA0027D2EB0702012567EB0303FFF75C
:10046000B5FF86460E4617469C46AC4204D0002592
:10047000D0EB050E65EB010624B10020D2EB00079E
:1004800060EB030C704631463A466346BDE8F081A6
:100490000649074A0868504343F23902104408608D
:1004A000400870470149086070470000400300247D
:1004B0006D4EC64140EA01039B0703D009E008C91D
:1004C000121F08C0042AFAD203E011F8013B00F819
:1004D000013B521EF9D27047D2B201E000F8012B65
:1004E000491EFBD270470022F6E710B513460A46B4
:1004F00004461946FFF7F0FF204610BD30B505460B
:100500002A460B4612F8010B13F8014B08B1A04222
:10051000F8D01CB1002802D06D1CF1E7284630BD90
:1005200010B5044604E00B7800F8013B03B1491C08
:10053000521EF8D2204610BD421C10F8011B0029A3
:10054000FBD1801A704730B50B46014600202022AF
:10055000012409E021FA02F59D4205D303FA02F5D0
:10056000491B04FA02F52844151EA2F10102F1DC30
:1005700030BD202A04DB203A00FA02F10020704747
:100580009140C2F1200320FA03F3194390407047D1
:10059000202A04DB203A21FA02F00021704721FAD8
:1005A00002F3D040C2F1200291400843194670473F
:1005B0002DE9FE4F804681EA0300C00F0C460090F3
:1005C00021F0004123F00045B8EB0200A94105D21B
:1005D0004046214690461C460B46024623F000400A
:1005E000104347D0270DC7F30A00C3F30A51029006
:1005F000401A019040286BDAC3F3130040F4801BCB
:100600000098924620B10023D2EB030A63EB0B0B58
:1006100001985946C0F140025046FFF7AAFF06462E
:100620000D4650465946019A00F08CF910EB08002F
:100630006141002487EA115284EAE7731A4340D0EB
:10064000009A62B3019A012A4FEA075215DC001B97
:1006500061EB02014FF0004202EA0752CDE900428D
:10066000001C41F5801132462B4600F08CF903B096
:10067000BDE8F08F40462146F9E7001B61EB02011F
:10068000001C41F5801300185B412018A2F50017EB
:1006900047EB030140EAD570B6196D4111E06D08D2
:1006A0004FEA360645EAC0754FEA0752001B61EB78
:1006B0000201001C41F5801149084FEA3000001981
:1006C000514132462B4603B0BDE8F04F00F04CB923
:1006D0000098012240000023D0EB020263EBE0739C
:1006E000009821464FEAE074B8EB000061EB04018A
:1006F000E9E783F000435BE781F0004158E72DE92B
:10070000FE4F81EA030404F0004421F0004100940C
:100710004FF0000B23F0004350EA01045ED052EA90
:1007200003045BD0C3F30A54C1F30A552C44A4F26A
:10073000F3340194A0FB0254C1F3130141F480117E
:10074000C3F3130343F4801301FB024400FB034E85
:10075000840A970A44EA815447EA8357A4FB07684E
:1007600002958D0A05FB07854FEA932C04FB0C5478
:100770002705029D4FEA065847EA1637B5EB0805EC
:100780006EEB070C870E920E47EA811742EA83123E
:10079000A7FB0201B6EB0B0164EB00042B0D43EA4F
:1007A0000C335E1844EB1C50DA465146E7FB02015D
:1007B000C5F313044FEA0B3343EA14534FEA0432F0
:1007C000019C43EA0603A4F10C040294009CCDE9C9
:1007D00000B400F0D8F803B0BDE8F08F0020014667
:1007E000F9E72DE9F04D81EA030404F0004B21F014
:1007F000004514464FF0000A23F0004150EA05027C
:1008000020D054EA01021DD0C5F30A570246C5F3B1
:100810001303C1F31300C1F30A5640F4801543F4E7
:100820008013A7EB0608101BD64608F2FD3873EBC1
:10083000050002D308F1010801E092185B41B8F10C
:10084000000F03DA00200146BDE8F08D00204FF4D0
:100850008011064684460EE0171B73EB050705D38F
:10086000121B63EB050306434CEA010C49084FEAEF
:10087000300092185B4150EA0107EDD152EA0300C3
:1008800012D082EA040083EA0501084305D0101B58
:10089000AB4106D20122002306E000224FF00043C4
:1008A00002E06FF0010253101AEB06004CEB085106
:1008B00010EB0A0041EB0B01BDE8F04D00F054B81D
:1008C000C1F30A52C1F3130140F2FF3341F4801126
:1008D0009A4202DA00200146704740F233439A42BE
:1008E000A2F2334202DC5242FFF752BEFFF741BE92
:1008F00030B5041E71F1000404DB4FF000444042A7
:1009000064EB0101141E73F1000405DB1C464FF07B
:100910000043524263EB0403994208BF904230BD4A
:10092000064C074D06E0E06840F0010394E807003C
:1009300098471034AC42F6D3FFF7CCFC406506086C
:1009400070650608202A06DBCB17203A41FA02F030
:1009500043EAE07306E041FA02F3D040C2F120021C
:10096000914008431946704710B5141E73F10004F6
:1009700008DA401C41F1000192185B411A4301D191
:1009800020F0010010BD2DE9F04D92469B4611B1BB
:10099000B1FA81F202E0B0FA80F220329046FFF71D
:1009A000E8FD04460F4640EA0A0041EA0B015346BF
:1009B0005A46084313D0114653EA010019D0C8F132
:1009C00040025046FFF7E4FD05460E4650465946A4
:1009D0004246FFF7CEFD084305D0012004E0204643
:1009E0003946BDE8F08D0020054346EAE0762C4309
:1009F00037430A986305E40AA0EB08000022FD0AC9
:100A000044EA47540A3002D500200146E9E70105CF
:100A100010196941DDE9084500196941BDE8F04D4B
:100A2000A2E770B58C1810F8015B15F0070301D12F
:100A300010F8013B2A1106D110F8012B03E010F841
:100A4000016B01F8016B5B1EF9D12B0705D4002364
:100A5000521E0DD401F8013BFAE710F8013BCB1A06
:100A6000921C03E013F8015B01F8015B521EF9D5FB
:100A7000A142D8D3002070BD10B50146012906D08F
:100A8000022909D003290CD004291DD10EE096209B
:100A90000F4AC2F80C0218E0FA220D48C0F81022E2
:100AA00013E0FA220A48C0F814220EE0002008E001
:100AB0000023C0EBC004064A543202EB84021376D2
:100AC000401C0F28F4DB00E000BF00BF10BD000099
:100AD000A4FB002410B50B480B4988600B48C86084
:100AE0000B4848610B4888610B48C8610B48086196
:100AF0000B4808620BA30DA20AA1012009F068F8B7
:100B000010BD0000356E04084CBF0024996E040827
:100B1000E56D0408EF6E0408BF6E0408716E0408EA
:100B2000FF6D04084253505F4C4344005B492F253E
:100B3000735D204C4344204F626A65637420436FA9
:100B40006E73747275637465642E0D0A0000000084
:100B500010B5002380220649064808F0F3FF064836
:100B600006A203680168012009F032F810BD0000F8
:100B70000018025838BF0024DC0100245B492F25EF
:100B8000735D20537461747573204C4544206F6EFF
:100B90002050473720696E697469616C697A6564B1
:100BA0002E0D0A0010B504462146024806F018FE34
:100BB00010BD00004403002410B5044806F023FED5
:100BC000042801D1002010BD0120FCE744030024CB
:100BD00010B50024084806F016FEFF280AD107A326
:100BE00007A206A1012008F0F3FF034806F0CCFF9E
:100BF00000B10224204610BD4403002453440000E9
:100C00005B492F25735D20726573746172740D0AE0
:100C10000000000070B504460D46164633462A46CD
:100C20002146044807F0E8F808B9002070BD02200A
:100C3000FCE700004403002408B5012000900023D5
:100C40001A4669460248006846F078FD08BD000073
:100C50002C03002470B504460D46164633462A463A
:100C60002146044807F048F908B9002070BD022069
:100C7000FCE700004403002408B502200090002394
:100C80001A4669460248006846F058FD08BD000053
:100C90002C03002400BFFEE70246107E08B1087E48
:100CA00008B90020704792ED002AD1ED002A72EEBB
:100CB000620A92ED012AD1ED012A32EE620A20EE9B
:100CC000A02AF0EE421A40EE001A92ED042AD1ED6D
:100CD000042A32EE221A21EE012AB4EEE12AF1EEC4
:100CE00010FA01DD0120DDE70020DBE72DE9F84FF8
:100CF00007460C4690464FF00009CA4600250026DC
:100D0000A346A01D00900425A7F1500010283AD258
:100D1000DFE800F01608190F1E2326292C2F323980
:100D2000393939354FF0340903254FF0400A01268F
:100D30002BE04FF03D0903254FF02E0A012624E059
:100D40004FF0300921E04FF037094FF003081CE065
:100D50004FF03A094FF0030817E04FF0410914E053
:100D60004FF0450911E04FF049090EE04FF04D09F1
:100D70000BE04FF0510908E04FF0550905E0144829
:100D8000D0F8009001E0BDE8F88F00BFB8F1030F84
:100D900001D1032500265DB16A000E4901EB49002F
:100DA0005946FFF787FB294648460B4A1268904789
:100DB0005EB17200074901EB4A000099FFF77AFB28
:100DC00031465046044A1268904700BFDBE70000F6
:100DD000BC00002408B40024A800002410B5024878
:100DE00002F02EFA10BD0000700500240146374ABB
:100DF0000868904249D0354A18320868904244D079
:100E0000324A3032086890423FD0304A483208684F
:100E100090423AD02D4A60320868904235D02B4A31
:100E200078320868904230D0284A90320868904260
:100E30002BD0264AA8320868904226D0244A086857
:100E4000904222D0224A1832086890421DD0204A8F
:100E500030320868904218D01D4A483208689042E3
:100E600013D01B4A6032086890420ED0184A78327C
:100E70000868904209D0164A90320868904204D01F
:100E8000134AA8320868904201D1012000E00020F6
:100E9000B0B10A78103A1823B2FBF3F000F0070261
:100EA0000C4B9A5CCA65032805D90A686FF30902DE
:100EB000121D8A6503E00A686FF309028A6503E080
:100EC000086820F0FF008865886D704710000240B8
:100ED00010040240B8A5050810B502682B4C036841
:100EE000A34222D0294C14340368A3421DD0274CBE
:100EF00028340368A34218D0244C3C340368A3422E
:100F000013D0224C50340368A3420ED01F4C6434DB
:100F10000368A34209D01D4C78340368A34204D06F
:100F20001A4C8C340368A34201D1012300E0002352
:100F30008BB10378083B1424B3FBF4F1144B03EB9F
:100F400081030366124B8033436601F01F040123C3
:100F5000A340836618E00378103B1824B3FBF4F138
:100F60000C4B9A4204D80B4BA83B9A4200D3083151
:100F7000094B03EB81030366074B8033436601F0A3
:100F80001F040123A340836610BD000008540258CB
:100F900000580258B8040240000802400179A9B381
:100FA000082940D8204B02689A4222D01E4B1433A5
:100FB00002689A421DD01C4B283302689A4218D00E
:100FC000194B3C3302689A4213D0174B50330268D6
:100FD0009A420ED0144B643302689A4209D0124BE5
:100FE000783302689A4204D00F4B8C3302689A42DD
:100FF00001D1012200E000224AB14A1E0B4B03EB53
:101000008202C266094A4032026708E00BE04A1ECB
:10101000074B03EB8202C266054A403202674A1E52
:1010200001239340436770470854025800590258FF
:1010300000090240014600208A69D2B98A6A32B1A9
:10104000012A0DD0022A03D0032A10D10EE000BFDE
:10105000CA6A02F08072B2F1807F00D1012007E0FD
:10106000CA6AB2F1C07F00D1012001E000E000BFF8
:1010700036E08A69B2F5005F1BD18A6A32B1012A73
:1010800007D0022A03D0032A11D10AE000BF0120B1
:101090000EE0CA6A02F08072B2F1807F00D10120B6
:1010A00006E0CA6AB2F1C07F00D1012000E000BFB3
:1010B00016E08A6A32B1012A05D0022A04D0032A36
:1010C0000CD103E000BF00BF012008E0CA6A02F0B3
:1010D0008072B2F1807F00D1012000E000BF00BF2C
:1010E00070470000F0B5856D846D984F0668BE426C
:1010F00070D0964F18370668BE426BD0934F30378A
:101100000668BE4266D0914F48370668BE4261D03D
:101110008E4F60370668BE425CD08C4F78370668C9
:10112000BE4257D0894F90370668BE4252D0874F93
:10113000A8370668BE424DD0854F0668BE4249D0EA
:10114000834F18370668BE4244D0814F3037066857
:10115000BE423FD07E4F48370668BE423AD07C4FF1
:1011600060370668BE4235D0794F78370668BE4290
:1011700030D0774F90370668BE422BD0744FA837D7
:101180000668BE4226D0734F0668BE4222D0714F19
:1011900014370668BE421DD06E4F28370668BE421F
:1011A00018D06C4F3C370668BE4213D0694F503799
:1011B0000668BE420ED0674F64370668BE4209D04B
:1011C000644F78370668BE4204D0624F8C37066899
:1011D000BE4201D1012600E000263EB1D0E91976D9
:1011E0007E60C66E16B1D0E91C767E60574F0668E9
:1011F000BE4249D0554F18370668BE4244D0534FBF
:1012000030370668BE423FD0504F48370668BE426E
:101210003AD04E4F60370668BE4235D04B4F7837D4
:101220000668BE4230D0494F90370668BE422BD088
:10123000464FA8370668BE4226D0454F0668BE42D4
:1012400022D0434F18370668BE421DD0404F30377A
:101250000668BE4218D03E4F48370668BE4213D0DB
:101260003B4F60370668BE420ED0394F783706686C
:10127000BE4209D0364F90370668BE4204D0344F84
:10128000A8370668BE4201D1012600E00026DEB183
:1012900090F85C6006F01F073F26BE40AE6006680F
:1012A000366826F4802607683E60066873608668A4
:1012B000402E04D10668B2600668F16044E006681A
:1012C000B1600668F2603FE0224F0668BE4222D05D
:1012D000204F14370668BE421DD01E4F28370668BF
:1012E000BE4218D01B4F3C370668BE4213D0194F80
:1012F00050370668BE420ED0164F64370668BE42AD
:1013000009D0144F78370668BE4204D0114F8C378D
:101310000668BE4201D1012600E00026A6B190F881
:101320005C6006F01F070126BE40666006687360B9
:101330008668402E04D10668B2600668F16003E05A
:101340000668B1600668F260F0BD0000100002405F
:101350001004024008540258704710B50446204655
:1013600046F0E1F810BD000030B50246002012E062
:101370000D4B1C881B885B1C0B4D2B800B4B1D5D84
:101380000346441CA0B2D554074B1B88FF2B02DD3B
:101390000023054C2380044B1B88054C2488A34262
:1013A00001D08842E4DB30BDD601002438BE0024E1
:1013B000D401002438B5082015490968086200BF27
:1013C00013480068806940F0080011490968886185
:1013D0000F480068806940F010000D490968886175
:1013E00000BF01220B490A4807F004FF04463CB144
:1013F00009A30BA208A10320009408F0E9FB05E073
:1014000005A312A204A1012008F0E2FB38BD0000F0
:1014100048040024D80100245541525434000000EF
:101420005B452F25735D20494D5520554152542071
:101430004954205374617274204661696C6564215B
:1014400020436F64653A2025640D0A005B492F250F
:10145000735D20494D552055415254204954205325
:101460007461727465642053756363657373667524
:101470006C6C792E0D0A000070B50446012C01DB5E
:10148000052C01D3002070BD074A02EBC4029188ED
:10149000054A52F8340003F0D5F905460DB901208C
:1014A000F1E70020EFE700001C10060872B600BF4D
:1014B000FEE700000748006840F0020005490860A8
:1014C00000BF04480838006800F400500028F8D035
:1014D000704700000C48025830B504460D46002203
:1014E0002946204600F002F830BD0000F0B5034662
:1014F000012500241148407A01281CDA00200F4EF3
:10150000767A0E4FB8553846467A001D40F8263098
:10151000001F467A083082553E46707A461C7E721D
:10152000044604F1300008703A2048702F2088707B
:101530000020C87000252846F0BD0000A40001244A
:1015400094B0FE48006820B90020FD49086046F0CC
:10155000C9FA46F011F81390FEF7A4FF47F0C6FE53
:1015600020B90020F649086046F0BCFA40F050FE71
:10157000139039F0C9FBF349C1F880020846D0F84E
:101580008002F022114613903EF029FFEE4829F028
:1015900025F81390EB48D0F880020022129013999E
:1015A0003EF058FFE748D0F880024FF48032002127
:1015B00013903EF015FBE348D0F88002139036F00C
:1015C0009FF9E049C1F884020846D0F88402052357
:1015D0001A460121139038F0ECFD6FF07F4028F09F
:1015E000FDFF1390D748D0F884020022129013997F
:1015F0003FF0A9F8D348D0F88402D4A1139037F073
:101600003AF9D048D0F88002139036F079F9CD49F4
:10161000C1F888020846D0F8880205235A420321FF
:10162000139038F0C6FDCC4828F0D8FF1390C54879
:10163000D0F888020022129013993FF084F8C14834
:10164000D0F88802C3A1139037F015F9BD48D0F83F
:1016500088020121139038F09BFCBA48D0F8800230
:10166000139036F04DF9B74948616FF07F4028F08C
:10167000B5FF1390B34840690022129013993FF0D0
:1016800062F8B04840690022FF2113903FF06FF8E4
:10169000AC484069AFA1139037F0EDF8A948406914
:1016A0000121139038F074FCA648D0F88002139002
:1016B00036F026F9A349C1F818020846D0F81802F6
:1016C0006FF004031A460621139038F072FDA34808
:1016D00028F084FF13909B48D0F818020022129043
:1016E00013993FF030F89748D0F8180299A1139059
:1016F00037F0C1F89348D0F818020121139038F060
:1017000047FCB2EE040A8F4880ED0B0AD0F8800245
:10171000139039F0F9FA8B490863084690ED0B0AEB
:10172000F0EE000A20EE200ABDEEC00A8DED130A8D
:1017300090ED0B0AF0EE000A20EE200ABDEEC00A82
:101740008DED120A006B1190DDE912123EF047FE9A
:101750007C48006B002247F6FF7113903EF0DBFFE0
:101760004FF47F4028F03AFF13907648006B002238
:10177000129013993EF06EFE7248006B00221146E3
:1017800013903EF0A7FE01216E4880F8341000202F
:10179000139053E06B48D0F88002129039F0B4FAFD
:1017A0006F49139A41F82200664890ED0B0AF0EE5B
:1017B000000A20EE200ABDEEC00A8DED120A90ED5F
:1017C0000B0AF0EE000A20EE200ABDEEC00A8DEDF5
:1017D000110A0846139950F821001090DDE9111202
:1017E0003EF0FDFD5E48139950F82100002247F6B7
:1017F000FF7112903EF08FFF4FF47F4028F0EEFE15
:1018000012905748139950F8210000221190129914
:101810003EF020FE5248139950F821000022114654
:1018200012903EF057FE4E48139950F821000121C6
:10183000129038F0ADFB1398401C139013980828B1
:10184000A8D3B1EE080A3F4880ED120AD0F8800212
:10185000139039F059FA3B49C864084690ED120AD2
:10186000F0EE000A20EE200ABDEEC00A8DED130A4C
:1018700090ED120AF0EE000A20EE200ABDEEC00A3A
:101880008DED120AC06C1190DDE912123EF0A7FD39
:101890002C48C06C002247F6FF7113903EF03BFFCE
:1018A0002D4828F09BFE13902648C06C0022129011
:1018B00013993EF0CFFD2348C06C002211461390CF
:1018C0003EF008FEB2EE000A1E4880ED810AD0F814
:1018D0008002139039F018FA1A49C1F80802084634
:1018E00090ED810AF0EE000A20EE200ABDEEC00A5B
:1018F0008DED130A90ED810AF0EE000A20EE200A29
:10190000BDEEC00A8DED120AD0F808021190DDE993
:1019100012123EF064FD0B48D0F80802002247F690
:10192000FF7113903EF0F7FE0648D0F8080200223F
:10193000022113903EF0CEFD14E00000FC010024D3
:1019400078020024A4FB00241111110053434F52CC
:10195000453A20300000000000D7FF00AAAAAA00E4
:1019600004FE00246FF07F4028F038FE1390FE48FC
:10197000D0F808020022129013993EF097FDFA4821
:10198000D0F808020121139038F002FB00201390D8
:1019900083E0B1EE0C0A1398C0EBC001F24854305A
:1019A00000EB810080ED040AEF48D0F8800212902D
:1019B00039F0AAF91399C1EBC102EB49543101EB9B
:1019C000820148611398C0EBC001E748543000EB36
:1019D000810090ED040AF0EE000A20EE200ABDEE30
:1019E000C00A8DED120A1398C0EBC001DE485430D6
:1019F00000EB810090ED040AF0EE000A20EE200AD0
:101A0000BDEEC00A8DED110A1398C0EBC001D64897
:101A1000543000EB810040691090DDE911123EF076
:101A2000DEFC1398C0EBC001CF48543000EB8100BE
:101A30004069002247F6FF7112903EF06CFE4FF4B1
:101A40007F0028F0CBFD12901398C0EBC001C64870
:101A5000543000EB810040690022119012993EF051
:101A6000F9FC1398C0EBC001BF48543000EB810073
:101A700040690022114612903EF02CFD1398C0EBF5
:101A8000C001B948543000EB810040690121129037
:101A900038F07EFA1398401C139013980F28FFF625
:101AA00078AFB148D0F88002139035F029FFAE49E5
:101AB000C1F88C020846D0F88C02ACA1139036F025
:101AC000DAFEA948D0F88C020022022113903EF0E1
:101AD0002EFEAF4828F082FD1390A348D0F88C0268
:101AE0000022129013993EF02EFE9F48D0F88C02EF
:101AF000139038F09FFF9C48D0F88C02012113907E
:101B000038F046FA47F032FF00F0F6FE0120964921
:101B100048707FE3042007F024FC18B100209249AC
:101B20004870FCE39048007800287DD19FED990A29
:101B30008DED130A9FED980A8DED120A032007F030
:101B400010FC38B19FED950A8DED130A9FED940AB4
:101B50008DED120A9348D0ED080A9DED120A20EE91
:101B6000800A8DED110AD0ED070A9DED120A20EED4
:101B7000800A8DED100A7C48D0ED090A9DED110A0E
:101B800070EE800A9DED130A20EE800A80ED090AAE
:101B9000D0ED0A0A9DED100A70EE800A9DED130A41
:101BA00020EE800A80ED0A0A90ED070AD0ED090ABE
:101BB00030EE200A80ED070A90ED080AD0ED0A0AFF
:101BC00030EE200A80ED080AD0ED070A90ED0B0AEE
:101BD000F4EEC00AF1EE10FA0BD290ED0B0A80ED94
:101BE000070AD0ED090ABEEE000A20EE800A80ED59
:101BF000090A5D4890ED070AD0ED0B0A9FED6A1ABD
:101C000071EE600AB4EEE00AF1EE10FA11DD90ED2B
:101C10000B0ADFED650A30EEC00A80ED070A90ED91
:101C2000090AFEEE000A00E0E1E220EE200A80ED63
:101C3000090A4D4890ED080AD0ED0B0AB4EEE00A0F
:101C4000F1EE10FA0BD290ED0B0A80ED080A90ED40
:101C50000A0AFEEE000A20EE200A80ED0A0A424837
:101C600090ED080AD0ED0B0A9FED4F1A71EE600A55
:101C7000B4EEE00AF1EE10FA0FDD90ED0B0ADFEDA5
:101C80004A0A30EEC00A80ED080A90ED0A0AFEEE1C
:101C9000000A20EE200A80ED0A0A334890ED070A78
:101CA00090F85C1200F5077000EB810080ED000AEF
:101CB0002D4890ED080A90F85C1200F50F7000EBCB
:101CC000810080ED000A284890F85C02401C00F07A
:101CD0000700254981F85C02B7EE000A8DED0F0A76
:101CE0000846D0F81002002803DD9FED2D0A8DED87
:101CF0000F0A00200E9033E10E98C0EBC0011A4885
:101D0000543000EB8100007E00B926E10E98C0EB54
:101D1000C0011548543000EB8100D0ED000A0E9848
:101D2000C0EBC0011048543000EB810090ED021A66
:101D30009DED0F0A41EE000A0E98C0EBC0010A4863
:101D4000543000EB8100C0ED000A0E98C0EBC001DA
:101D50000548543000EB8100D0ED010A0E98C0EB2D
:101D6000C0010148543021E0A4FB002447414D4507
:101D7000204F5645520A507265737320454E5445A4
:101D80005220746F205265737461727400000000F9
:101D90004444FF00D7A3703F9A99193E48E17A3F27
:101DA0003333B33E78FB00240000704300EB810026
:101DB00090ED031A9DED0F0A41EE000A0E98C0EB5C
:101DC000C001FE4800EB8100C0ED010A0E98C0EB97
:101DD000C001FA4800EB810090ED000A0E98C0EBBC
:101DE000C001F64800EB8100D0ED040AB4EEE00A31
:101DF000F1EE10FA18D30E98C0EBC001EF4800EBDB
:101E0000810090ED000A0E98C0EBC001EB4800EB9A
:101E10008100D0ED040A1FED1C1A71EE600AB4EEC9
:101E2000E00AF1EE10FA13DD0E98C0EBC001E348B2
:101E300000EB810090ED020AFFEE000A20EE200A7E
:101E40000E98C0EBC001DD4800EB810080ED020A76
:101E50000E98C0EBC001D94800EB810090ED010A5B
:101E60000E98C0EBC001D54800EB8100D0ED040A0C
:101E7000B4EEE00AF1EE10FA18D30E98C0EBC001F0
:101E8000CE4800EB8100D0ED010A0E98C0EBC001F6
:101E9000CA4800EB810090ED040A1FED3D1A31EEB7
:101EA000400AF4EEC00AF1EE10FA13DD0E98C0EB12
:101EB000C001C24800EB810090ED030AFFEE000A6A
:101EC00020EE200A0E98C0EBC001BC4800EB810058
:101ED00080ED030A00200D90B8485438D0F80C0269
:101EE000002824DD1C22B549383906A8FEF7E2FA9D
:101EF0009DED0A0AF2EE000A30EE200A8DED0A0A84
:101F00000E98C0EBC001AD4800EB81000146059082
:101F100006A8FEF7C1FE48B100210E98C0EBC00232
:101F2000A64800EB8200017601200D9000BF0D98BD
:101F300090B90E98C0EBC001A04800EB81000146AB
:101F40000C909E483838FEF7A7FE28B100209B4928
:101F5000543988600120087000BF0E98401C0E9014
:101F60000E980F28FFF6C8AE94485438D0F81402E3
:101F7000002826DD91485438D0ED070A90ED0E0A6E
:101F800030EEC00A8DED0E0A90ED080AD0ED0F0A72
:101F900030EE600A8DED0D0AD0ED0E0A9DED0E0AB1
:101FA0009FED871A40EE010AC0ED0E0AD0ED0F0A30
:101FB0009DED0D0A9FED821A40EE010AC0ED0F0A59
:101FC00000BF7E491C39A1F11C00FEF765FE002808
:101FD0007DD07A4854388068401C784954398860EC
:101FE00008468068032190FBF1F0401C0E900E988B
:101FF000032801DD03200E907048543841680A22FE
:102000000E9802FB00106D49543948600E9800EBA1
:1020100080004000C8601920086101F1380009F013
:1020200095FB6648543840681E2190FBF1F00D90F6
:102030000D980F2801DD0F200D9000200C9054E02A
:102040000C98C0EBC0015D4800EB8100007EE8BB4E
:1020500001210C98C0EBC002584800EB82000176C9
:102060000C98C0EBC001554800EB81000B9009F0C3
:102070006DFBFEF70DFA322190FBF1F201FB12002D
:1020800000EE100AB8EEC00AB2EE041AC0EE010A61
:10209000B0EE040A30EEC00A0C98C0EBC00147480D
:1020A00000EB810080ED020AFEF7F2F9322190FB8D
:1020B000F1F201FB120000EE100AF8EEC00AB2EED7
:1020C000041A80EE810AF0EE040A01E00AE021E041
:1020D00030EE600A0C98C0EBC001384800EB81007C
:1020E00080ED030A0C98401C0C90DDE90C0188423D
:1020F000A6DB3248543890F8F90150B9FEF7C8F918
:10210000642190FBF1F201FB12000F2801D209F0CB
:1021100069FB00BF2948543890F8F901C8B3274833
:102120005438D0ED070A90ED7F0A30EEC00A8DEDED
:102130000E0A90ED080AD0ED800A30EE600A8DEDAF
:102140000D0A9DED0E0A20EE000ADDED0D0A00EEEF
:10215000A00A8DED0C0AD0ED0B0A90ED810A30EE4D
:10216000800A8DED0B0A9DED0B0A60EE000A9DEDD5
:102170000C0AF4EEC00AF1EE10FA09DD90F8F8014D
:102180000A90FEF779FC00210C48543880F8F911C8
:1021900000BF0A485438D0F80C02002808DD074870
:1021A0005438D0F80C02401E04495439C1F80C02CE
:1021B00002485438D0F81002002803E0F8FB00244D
:1021C0008FC2F53D06DDFE48D0F81002401EFC49E6
:1021D000C1F81002FA48D0F81402002806DDF848C9
:1021E000D0F81402401EF649C1F814020CE0F4487D
:1021F0000078012808D1032007F0B3F820B10020AF
:10220000EF49087000F078FB47F070F818B9052026
:1022100045F089F92CE3EA48007800287ED1E848A7
:10222000D0F88C020121069037F0B2FEE4484068F5
:102230000690E348D0F884020590E2A1069A36F0B1
:102240002CFBDF48806803281EDBDD488068032103
:1022500090FBF1F0401C0690D948D0F88802059018
:10226000DBA1069A36F019FBD548D0F88802012187
:1022700006903BF0E4FCB0B1D148D0F888020121CF
:1022800006903DF0FEFB0EE0CD48D0F8880201211B
:1022900006903BF0D4FC30B9C948D0F8880201213F
:1022A000069037F075FEC648006900284EDDC44828
:1022B000006919280FD1C248C0680590C04840691C
:1022C0000490C6A1059A36F0E8FABD48406901219C
:1022D00005903DF0D6FBBA480069401EB849086138
:1022E000084690ED0F0AD0ED120A30EE600ABDEEFE
:1022F000C00A10EE100A0969C1F11901A0EB4100F2
:102300000690AF4890ED0E0AD0ED120A30EE600A4A
:10231000BDEEC00A8DED050A406901E09BE2ACE22A
:102320000490DDE905123DF0EEFFA5480069C0EB21
:102330000020192190FBF1F0C0B20590A04840693F
:102340000022049005993EF012FA0CE09C48406986
:10235000012106903BF073FC28B99948406901219E
:10236000069037F015FE96488069401C94498861B4
:1023700000201390084680690A2190FBF1F0069036
:1023800000EBD07041100698A0EB410008B9012085
:1023900013908B48D0F80C02002812DD8848006B9F
:1023A0000022032106903EF095F88D4828F016F99A
:1023B00006908348006B0022059006993EF076F85F
:1023C00006E07F48006B0022114606903EF082F83E
:1023D0007B48D0ED0B0A9DED130AB8EEC00AB0EEB3
:1023E000001A00EE810ABDEEC00A8DED060AD0ED9E
:1023F0000B0A9DED130AB8EEC00AB0EE001A00EE0B
:10240000810ABDEEC00A8DED050A006B0490DDE97E
:1024100005123DF0E4FF6A4890ED080AD0ED0B0A82
:1024200030EE600ABDEEC00A8DED060A90ED070A97
:10243000D0ED0B0A30EE600ABDEEC00A8DED050A44
:10244000006B0490DDE905123DF05DFF0020069071
:102450005CE05B4890F85C120698084400F00700C6
:1024600005900698401C00EB80000001C0F3C700F7
:10247000049004980F2801DA0F200490069806288B
:1024800039D25848059950F8210000220390049948
:102490003EF000F85348059950F8210001210390BF
:1024A0003DF0EFFA4F482438059900EB810090ED9C
:1024B000000A4348D0ED0B0A30EE600ABDEEC00AB8
:1024C0008DED030A00F5077000EB810090ED000A26
:1024D0003B48D0ED0B0A30EE600ABDEEC00A8DED30
:1024E000020A4048059950F821000190DDE90212E6
:1024F0003DF009FF07E03B48059950F82100012114
:10250000039037F045FD0698401C06900698082871
:102510009FD32B4890ED0F0AD0ED120A30EE600ADF
:10252000BDEEC00A8DED060A90ED0E0AD0ED120A3E
:1025300030EE600ABDEEC00A8DED050AC06C049055
:10254000DDE905123DF0DFFE1D4890F8F901A8B362
:102550001B4890F8F801049047F010FA059028F015
:102560003DF806901648D0F808020022059006991A
:102570003DF070FF6FF07F4028F030F80690104873
:10258000D0F808020022059006993DF08FFF0C4814
:10259000D0F80802012106903BF051FB30B1084809
:1025A000D0F80802012106903DF06BFA044890ED46
:1025B000800AD0ED810A30EE600A15E02AE00000C2
:1025C000A4FB002453434F52453A202564000000E9
:1025D000434F4D424F207825642100002B25640095
:1025E000FF88440004FE0024BDEEC00A8DED060AFB
:1025F00090ED7F0AD0ED810A30EE600ABDEEC00A90
:102600008DED050AD0F808020490DDE905123DF0D1
:102610007AFE0EE0A548D0F80802012106903BF0B2
:102620000EFB30B9A148D0F808020121069037F01E
:10263000AFFC002006908CE00698C0EBC0019B48E0
:10264000543000EB8100007EF0B30698C0EBC0016F
:102650009648543000EB81004069012105903DF01F
:1026600010FA9248D0F81002002811DD904827F0A7
:10267000B5FF05900698C0EBC0018C48543000EBC4
:10268000810040690022049005993DF0E3FE11E0CD
:102690004FF47F0027F0A2FF05900698C0EBC00121
:1026A0008248543000EB8100406900220490059973
:1026B0003DF0D0FE0698C0EBC0017C48543000EBE2
:1026C000810090ED010A00E034E00698C0EBC00103
:1026D0007648543000EB8100D0ED040A30EE600AF9
:1026E000BDEEC00A8DED050A0698C0EBC0016F482B
:1026F000543000EB810090ED000A0698C0EBC00159
:102700006A48543000EB8100D0ED040A30EE600AD4
:10271000BDEEC00A8DED040A0698C0EBC001634807
:10272000543000EB810040690390DDE904123DF074
:10273000EAFD0BE00698C0EBC0015C48543000EBAA
:10274000810040690121059037F022FC0698401C69
:10275000069006980F28FFF66FAF00208DF81C003A
:102760005248D0F80C0200280DDD5048D0F80C0279
:10277000322190FBF1F006904EA2302107A8069B73
:102780000BF036F900BF4948D0F81002002821DDCF
:102790004648D0F81002322190FBF1F0069007A8CD
:1027A000FDF7CAFE059006980090059808B144A070
:1027B00001E0AFF6282004900598C0F1300007A989
:1027C00003900598084402903EA2DDE903130BF044
:1027D0000FF900BF3548D0F81402002821DD334836
:1027E000D0F81402322190FBF1F0069007A8FDF713
:1027F000A3FE059006980090059808B130A001E06E
:10280000AFF6782004900598C0F1300007A9039036
:102810000598084402902EA2DDE903130BF0E8F8B6
:1028200000BF9DF81C0070B12048D0F8180207A91D
:10283000069036F020F81D48D0F8180201210690C5
:102840003DF01FF906E01948D0F818020121069062
:1028500037F09EFB06E01548D0F88C02012113905A
:102860003DF00FF947F082F8142044F05CFE00BF01
:102870000E48407800287FF44DA900BF46F036FD91
:1028800078B10A48D0F8800248B10848D0F88002F0
:10289000139038F053FA00200449C1F8800247F041
:1028A00065F800200E49086045F01CF9A4FB0024DF
:1028B000FF44AA00534849454C4420256473000056
:1028C000200000002573534C4F57202564730000EF
:1028D00025734D41474E4554202564730000000088
:1028E000780200240348006808B1012070470020E6
:1028F000FCE700007802002410B500202049087091
:10290000486088600861886100211D4880F8F911DD
:1029100000201B49C1F80C0200211948C0F8101210
:10292000C0F814120020164981F85C029FED150AC8
:10293000084680ED070A9FED130A80ED080A9FED17
:10294000120A80ED090A9FED100A80ED0A0A0121A2
:1029500080F83410383008F0F9FE0121084880F87A
:102960005010002008E00022C0EBC003044954319D
:1029700001EB83010A76401C0F28F4DB10BD000038
:10298000A4FB00240000F0420000000000B589B064
:102990000848006860B9242207496846FDF78AFDA7
:1029A0006A460021054845F0A2F80249086000BFC8
:1029B00009B000BD780200243C110608411500084A
:1029C0000020014948707047A4FB00242DE9F04124
:1029D000044601F04FFF804614B90120BDE8F081A4
:1029E00094F83500022808D08020606500BF0020E0
:1029F00084F8340000BF0120F0E7FE4920688842D7
:102A000049D0FC4918312068884244D0F949303116
:102A1000206888423FD0F7494831206888423AD040
:102A2000F44960312068884235D0F2497831206815
:102A3000884230D0EF499031206888422BD0ED4950
:102A4000A8312068884226D0EB492068884222D0ED
:102A5000E9491831206888421DD0E74930312068A3
:102A6000884218D0E44948312068884213D0E249AE
:102A70006031206888420ED0DF4978312068884272
:102A800009D0DD4990312068884204D0DA49A83164
:102A90002068884201D1012000E0002068B1206850
:102AA000006820F01E00216808602068406920F05E
:102AB000800021684861256806E02068006820F0F1
:102AC0000E00216808602568CA492068884270D0D5
:102AD000C8491831206888426BD0C6493031206817
:102AE000884266D0C34948312068884261D0C149D4
:102AF0006031206888425CD0BE49783120688842C5
:102B000057D0BC4990312068884252D0B949A83189
:102B1000206888424DD0B8492068884249D0B649DB
:102B200018312068884244D0B34930312068884247
:102B30003FD0B1494831206888423AD0AE4960312F
:102B40002068884235D0AC4978312068884230D03E
:102B5000A9499031206888422BD0A749A831206824
:102B6000884226D0A5492068884222D0A349143142
:102B7000206888421DD0A14928312068884218D099
:102B80009E493C312068884213D09C4950312068CE
:102B900088420ED0994964312068884209D097490B
:102BA00078312068884204D094498C31206888426A
:102BB00001D1012000E0002028B1206E006820F43F
:102BC0008070216E08608B492068884249D089490D
:102BD00018312068884244D08649303120688842C4
:102BE0003FD084494831206888423AD081496031D9
:102BF0002068884235D07F4978312068884230D0BB
:102C00007C499031206888422BD07A49A8312068CD
:102C1000884226D078492068884222D076491831E7
:102C2000206888421DD0744930312068884218D00D
:102C3000714948312068884213D06F49603120685B
:102C400088420ED06C4978312068884209D06A49A0
:102C500090312068884204D06749A83120688842B2
:102C600006D12068006820F001002168086005E0B6
:102C70002068006820F001002168086011E001F080
:102C8000F9FDA0EB080005280BD920206065032082
:102C900084F8350000BF002084F8340000BF012014
:102CA0009CE6286800F001000028E8D1514920681E
:102CB000884249D04F4918312068884244D04D4954
:102CC0003031206888423FD04A49483120688842E4
:102CD0003AD0484960312068884235D0454978313A
:102CE0002068884230D043499031206888422BD0F8
:102CF0004049A8312068884226D03F492068884250
:102D000022D03D491831206888421DD03A493031DF
:102D10002068884218D0384948312068884213D04A
:102D200035496031206888420ED0334978312068B7
:102D3000884209D0304990312068884204D02E4919
:102D4000A8312068884201D1012000E0002040B174
:102D5000A66D94F85C0000F01F013F208840B06031
:102D600007E0A76D94F85C0000F01F010120884087
:102D7000786020492068884276D01E491831206842
:102D8000884271D01B493031206888426CD0194983
:102D900048312068884267D01649603120688842EF
:102DA00062D014497831206888425DD01149903151
:102DB0002068884258D00F49A8312068884253D0F3
:102DC0000D49206888424FD00B491831206888424D
:102DD0004AD0094930312068884245D006494831F7
:102DE0002068884240D004496031206888423BD046
:102DF000014905E010000240100402400854025846
:102E00007831206888422FD02549206888422BD00D
:102E1000234918312068884226D0224920688842F8
:102E200022D020491431206888421DD01D49283104
:102E30002068884218D01B493C312068884213D052
:102E400018495031206888420ED0164964312068F4
:102E5000884209D0134978312068884204D011494A
:102E60008C312068884201D1012000E0002068B147
:102E7000D4E919104860E06E40B1E06E006820F4BB
:102E80008070E16E0860D4E91C104860012084F86D
:102E9000350000BF002084F8340000BF00BF9DE56E
:102EA000A00402400854025870B504460CB9012031
:102EB00070BD94F83500022803D0802060650120A1
:102EC000F6E7DC492068884249D0DA4918312068A1
:102ED000884244D0D7493031206888423FD0D54914
:102EE0004831206888423AD0D2496031206888420F
:102EF00035D0D04978312068884230D0CD499031E2
:102F0000206888422BD0CB49A8312068884226D03F
:102F1000C9492068884222D0C749183120688842B0
:102F20001DD0C54930312068884218D0C249483187
:102F30002068884213D0C0496031206888420ED092
:102F4000BD4978312068884209D0BB49903120685A
:102F5000884204D0B849A8312068884201D10120B4
:102F600000E00020F0B3042084F83500B149206867
:102F700088424BD0AF4918312068884246D0AD49CD
:102F800030312068884241D0AA49483120688842BF
:102F90003CD0A84960312068884237D0A5497831B3
:102FA0002068884232D0A3499031206888422DD0D1
:102FB000A049A8312068884228D09F4920688842CB
:102FC00024D09D491831206888421FD09A49303159
:102FD000206888421AD0984948312068884215D024
:102FE000954900E020E06031206888420ED0924987
:102FF00078312068884209D08F4990312068884212
:1030000004D08D49A8312068884206D12068006824
:1030100020F001002168086009E12068006820F0C4
:1030200001002168086002E12068006820F00E00BD
:10303000216808607F492068884249D07D4918315D
:103040002068884244D07B493031206888423FD094
:1030500078494831206888423AD076496031206802
:10306000884235D0734978312068884230D0714920
:103070009031206888422BD06E49A8312068884260
:1030800026D06D492068884222D06B4918312068CB
:1030900088421DD0684930312068884218D066497E
:1030A00048312068884213D06349603120688842E3
:1030B0000ED0614978312068884209D05E4990314C
:1030C0002068884204D05C49A8312068884206D133
:1030D0002068006820F001002168086005E0206891
:1030E000006820F001002168086052492068884289
:1030F00070D050491831206888426BD04D4930312A
:103100002068884266D04B4948312068884261D0A7
:1031100048496031206888425CD04649783120684F
:10312000884257D0434990312068884252D0414963
:10313000A831206888424DD03F492068884249D054
:103140003D4918312068884244D03B4930312068DD
:1031500088423FD038494831206888423AD03649C1
:1031600060312068884235D0334978312068884200
:1031700030D031499031206888422BD02E49A83177
:103180002068884226D02D492068884222D02B49C9
:103190001431206888421DD028492831206888428F
:1031A00018D026493C312068884213D02349503139
:1031B000206888420ED0214964312068884209D0B5
:1031C0001E4978312068884204D01C498C3120681F
:1031D000884201D1012000E00020D8B1206E0068B3
:1031E00020F48070216E0860A56D94F85C0000F0FA
:1031F0001F01012088406860D4E919104860E06E22
:1032000040B1E06E006820F48070E16E0860D4E99F
:103210001C104860012084F8350000BF002084F8AD
:10322000340000BF206D10B12046216D884700207A
:103230003EE600001000024010040240085402580C
:103240002DE9F84F044600200090FE4800684FF436
:103250001651B0FBF1FAA66DD4F858803768D8F84B
:103260000090F9492068884249D0F7491831206810
:10327000884244D0F4493031206888423FD0F24936
:103280004831206888423AD0EF496031206888424E
:1032900035D0ED4978312068884230D0EA49903104
:1032A000206888422BD0E849A8312068884226D07F
:1032B000E6492068884222D0E449183120688842D3
:1032C0001DD0E24930312068884218D0DF494831AA
:1032D0002068884213D0DD496031206888420ED0D2
:1032E000DA4978312068884209D0D849903120687D
:1032F000884204D0D549A8312068884201D10120F4
:1033000000E0002000287DD094F85C0000F01F0150
:10331000082088403840002868D0CB49206888427F
:1033200049D0C94918312068884244D0C649303153
:10333000206888423FD0C4494831206888423AD04A
:10334000C14960312068884235D0BF497831206852
:10335000884230D0BC499031206888422BD0BA498D
:10336000A8312068884226D0B8492068884222D0F7
:10337000B6491831206888421DD0B44930312068E0
:10338000884218D0B14948312068884213D0AF49EB
:103390006031206888420ED0AC497831206888427C
:1033A00009D0AA4990312068884204D0A749A831A1
:1033B0002068884204D12068006800F0040003E01F
:1033C0002068006800F0080080B12068006820F0E4
:1033D00004002168086094F85C0000F01F010820D8
:1033E0008840B060606D40F00100606594F85C005A
:1033F00000F01F01012088403840E8B3924920685E
:10340000884200E0B7E24BD08F49183120688842EB
:1034100046D08D4930312068884241D08A494831B0
:10342000206888423CD0884960312068884237D083
:10343000854978312068884232D0834990312068AC
:1034400088422DD08049A8312068884228D07F4901
:103450002068884224D07D491831206888421FD0D6
:103460007A493031206888421AD07849483120683A
:10347000884215D0754900E026E060312068884216
:103480000ED0724978312068884209D06F49903156
:103490002068884204D06D49A8312068884204D150
:1034A0002068406900F0800002E020680068002089
:1034B00050B194F85C0000F01F0101208840B0601A
:1034C000606D40F00200606594F85C0000F01F0140
:1034D000042088403840E8B35B49206888424BD0DC
:1034E000594918312068884246D057493031206800
:1034F000884241D054494831206888423CD05249E2
:1035000060312068884237D04F497831206888423E
:1035100032D04D499031206888422DD04A49A83197
:103520002068884228D049492068884224D04749E9
:103530001831206888421FD04449303120688842C1
:103540001AD0424948312068884215D03F4960313D
:10355000206800E024E088420ED03C4978312068A1
:10356000884209D0394990312068884204D03749CF
:10357000A8312068884204D12068006800F0020069
:1035800002E020680068002050B194F85C0000F070
:103590001F0104208840B060606D40F00400606549
:1035A00094F85C0000F01F01102088403840E8B318
:1035B00025492068884251D0234918312068884223
:1035C0004CD0214930312068884247D01E494831CB
:1035D0002068884242D01C496031206888423DD032
:1035E000194978312068884238D0174990312068CD
:1035F000884233D01449A831206888422ED013491C
:10360000206888422AD0114918312068884225D084
:103610000E4930312068884220D00C49483120685A
:1036200088421BD009496031206800E04DE08842A3
:1036300014D006497831206888420FD00349903170
:10364000206805E010000024100002401004024031
:10365000884203D0FE492068884204D1206800686F
:1036600000F0080003E02068006800F0040060B388
:1036700094F85C0000F01F0110208840B0602068C2
:10368000006800F4802080B12068006800F4002009
:1036900028B9206CC8B12046216C884715E0A06C81
:1036A00098B12046A16C88470FE02068006800F4BC
:1036B000807028B92068006820F008002168086040
:1036C000206C10B12046216C884794F85C0000F013
:1036D0001F0120208840384000287DD0DD49206827
:1036E000884249D0DB4918312068884244D0D94902
:1036F0003031206888423FD0D6494831206888421E
:103700003AD0D44960312068884235D0D1497831E7
:103710002068884230D0CF499031206888422BD031
:10372000CC49A8312068884226D0C949A8392068E8
:10373000884221D0C6499039206888421CD0C449AB
:1037400078392068884217D0C1496039206888429A
:1037500012D0BF494839206888420DD0BC49303961
:103760002068884208D0BA4918392068884203D0B6
:10377000B7492068884204D12068006800F0100032
:1037800003E02068006800F0020028B394F85C00B1
:1037900000F01F0120208840B06094F83500042814
:1037A0002DD12068006820F016002168086020688C
:1037B000406920F0800021684861206C08B9A06C45
:1037C00028B12068006820F008002168086094F89B
:1037D0005C0000F01F0100E03FE03F208840B06047
:1037E000012084F8350000BF002084F8340000BFB9
:1037F000206D10B12046216D8847BDE8F88F206804
:10380000006800F4802080B12068006800F4002087
:1038100028B9606C08B32046616C88471DE0E06BF6
:10382000D8B12046E16B884717E02068006800F4B3
:10383000807068B92068006820F010002168086076
:10384000012084F8350000BF002084F8340000BF58
:10385000E06B10B12046E16B8847606D00287AD09C
:10386000606D00F00100E8B3042084F83500794968
:10387000206888424BD0774918312068884246D06A
:10388000744930312068884241D0724948312068FB
:1038900088423CD06F4960312068884237D06D49FA
:1038A00078312068884232D06A4990312068884255
:1038B0002DD06849A8312068884228D06449A839A9
:1038C0002068884223D062499039206888421ED0FF
:1038D0005F4978392068884219D05D49603920688D
:1038E000884200E040E012D05949483920688842B7
:1038F0000DD0574930392068884208D054491839CA
:103900002068884203D052492068884206D1206846
:10391000006820F001002168086005E02068006868
:1039200020F001002168086000BF0098401C009052
:10393000504500D905E02068006800F0010000282B
:10394000F3D100BF2068006800F0010020B103201F
:1039500084F8350003E00DE0012084F8350000BF55
:10396000002084F8340000BFE06C002802D020461C
:10397000E16C8847D9E138492068884222D036492D
:103980001431206888421DD033492831206888428C
:1039900018D031493C312068884213D02E4950312B
:1039A000206888420ED02C4964312068884209D0B2
:1039B000294978312068884204D027498C31206811
:1039C000884201D1012000E000200028D2D02068E8
:1039D000056894F85C0000F01F010420884000EAAC
:1039E0000900D8B305F00400C0B394F85C0000F0FF
:1039F0001F0104208840C8F8040005F4004080B18D
:103A000005F4803030B9A06C0028B3D02046A16CFA
:103A100088478AE1206C0028ACD02046216C88477A
:103A200083E105F02000E8BB0A492068884253D0B2
:103A300008491831206888424ED006493031206844
:103A4000884249D0034948312068884244D006E082
:103A5000B804024010000240085402584FE0B44934
:103A600060312068884237D0B14978312068884277
:103A700032D0AF499031206888422DD0AC49A8316E
:103A80002068884228D0AB492068884224D0A949C0
:103A90001831206888421FD0A649303120688842FA
:103AA0001AD000E025E0A34948312068884213D0AD
:103AB000A0496031206888420ED09E497831206844
:103AC000884209D09B4990312068884204D09949A6
:103AD000A8312068884206D12068006820F00800DC
:103AE0002168086005E02068006820F00400216873
:103AF0000860206C10B32046216C884715E194F8CB
:103B00005C0000F01F010220884000EA0900E8B3D1
:103B100005F00200D0B394F85C0000F01F01022011
:103B20008840C8F8040005F4004070B105F4803006
:103B300028B9606C10B12046616C8847F5E0E06BF5
:103B4000F0B32046E16B8847EFE005F02000C0BBF2
:103B50007749206888424ED07549183120688842DC
:103B600049D0734930312068884244D07049483187
:103B7000206888423FD06E496031206888423AD040
:103B80006B4978312068884235D000E04EE06849C2
:103B90009031206888422ED06549A831206888423B
:103BA00029D064492068884225D0624918312068AC
:103BB000884220D05F493031206888421BD001E024
:103BC0006EE02DE05B4948312068884213D05949A6
:103BD0006031206888420ED056497831206888428A
:103BE00009D0544990312068884204D05149A83105
:103BF0002068884206D12068006820F014002168FF
:103C0000086005E02068006820F00A00216808606C
:103C1000012084F8350000BF002084F8340000BF84
:103C2000E06BE8B32046E16B88477EE094F85C00E7
:103C300000F01F010820884000EA090080B305F069
:103C4000080068B33A49206888424BD03849183197
:103C50002068884246D0364930312068884241D0B9
:103C600033494831206888423CD03149603120686E
:103C7000884237D02E4978312068884232D02C498A
:103C80009031206888422DD02949A8312068884287
:103C900028D028492068884224D02649183100E0DD
:103CA00043E0206888421DD0224930312068884294
:103CB00018D0204948312068884213D01D4960310E
:103CC000206888420ED01B4978312068884209D08C
:103CD000184990312068884204D01649A8312068DC
:103CE000884206D12068006820F01C002168086026
:103CF00005E02068006820F00E002168086094F854
:103D00005C0000F01F0101208840C8F80400012079
:103D1000606584F8350000BF002084F8340000BFDF
:103D2000E06C10B12046E16C884700BF65E50000FB
:103D300010000240100402402DE9F041044600F05A
:103D400099FD804614B90120BDE8F081FE49206844
:103D5000884249D0FC4918312068884244D0FA4949
:103D60003031206888423FD0F74948312068884286
:103D70003AD0F54960312068884235D0F24978312F
:103D80002068884230D0F0499031206888422BD09A
:103D9000ED49A8312068884226D0EC492068884245
:103DA00022D0EA491831206888421DD0E7493031D5
:103DB0002068884218D0E54948312068884213D0ED
:103DC000E2496031206888420ED0E04978312068AD
:103DD000884209D0DD4990312068884204D0DB490F
:103DE000A8312068884201D1012000E0002000288D
:103DF00073D0606A00B100BF022084F8350000BFB4
:103E0000002084F8340000BFCF492068884249D0A0
:103E1000CD4918312068884244D0CB4930312068E0
:103E200088423FD0C8494831206888423AD0C649C4
:103E300060312068884235D0C34978312068884293
:103E400030D0C1499031206888422BD0BE49A8317A
:103E50002068884226D0BD492068884222D0BB49CC
:103E60001831206888421DD0B84930312068884216
:103E700018D0B64948312068884213D0B349603120
:103E8000206888420ED0B14978312068884209D034
:103E9000AE4990312068884204D0AC49A8312068EE
:103EA000884206D12068006820F00100216808607F
:103EB00005E02068006820F00100216808600DE03E
:103EC00000F0D8FCA0EB0800052807D92020606589
:103ED000032084F83500012036E769E02068006897
:103EE00000F001000028EBD12068056898480540E3
:103EF000D4E9020108432169084361690843A169C3
:103F00000843E1690843216A08430543606A0428BD
:103F100003D1D4E90B01084305436068292802D383
:103F200060682E2817D960683F2802D3606842284D
:103F300011D96068472802D3606848280BD96068A7
:103F40004F2802D36068522805D96068742804D3CA
:103F50006068772801D8012000E0002008B145F40E
:103F60008015206805602068456925F00705606AAE
:103F70000543606A04280DD1A06A0543E06A48B190
:103F80002046FDF757F828B140206065012084F8ED
:103F90003500D9E6206845612046FCF727FF064634
:103FA00094F85C0000F01F013F208840B0609EE064
:103FB00068492068884222D06649143120688842C6
:103FC0001DD0644928312068884218D061493C31AD
:103FD0002068884213D05F495031206888420ED053
:103FE0005C4964312068884209D05A497831206898
:103FF000884204D057498C312068884201D1012081
:1040000000E00020E0B353492068884222D05149A3
:104010001431206888421DD04E49283120688842DA
:1040200018D04C493C312068884213D0494950315E
:10403000206888420ED0474964312068884209D000
:10404000444978312068884204D042498C31206844
:10405000884201D1012000E0002000B100BF022011
:1040600084F8350000BF002084F8340000BF2068C9
:10407000056839480540A068402802D1102106E0B3
:104080002EE0A068802801D1C10100E00021E06895
:1040900041EAD001206941EAD001606941EAD001DA
:1040A000A06941EAD001E06941EAD001206A41EA11
:1040B000101005432068056026492068401A142125
:1040C000B0FBF1F08000E0652046FCF78FFE07466C
:1040D00094F85C0000F01F0101208840786006E041
:1040E00040206065032084F8350001202CE6164945
:1040F000206888427AD0144918312068884275D0E7
:10410000114930312068884270D00F494831206809
:1041100088426BD00C4960312068884266D00A49D9
:1041200078312068884261D0074990312068884200
:104130005CD00549A8312068884257D003492068DF
:10414000884253D0014909E01000024010040240A7
:104150003F8010FE085402580F00FEFF18312068FF
:10416000884243D03749206888423FD035491831CA
:10417000206888423AD0334930312068884235D0AF
:10418000304948312068884230D02E49603120685B
:1041900088422BD02B4978312068884226D02A4982
:1041A0002068884222D028491431206888421DD0D6
:1041B000254928312068884218D023493C3120689D
:1041C000884213D020495031206888420ED01E49C1
:1041D00064312068884209D01B49783120688842C0
:1041E00004D019498C312068884201D1012000E0B7
:1041F000002000B32046FCF76FFEA068802801D1A4
:10420000002060602079216E0860D4E919104860B0
:10421000606860B16068082809D82046FCF7BEFED7
:104220000020E16E0860D4E91C10486003E0002023
:10423000E0662067606700206065012084F8350033
:10424000002081E540040240085402582DE9F04165
:1042500004460D4616461F464FF0000814B90120CB
:10426000BDE8F08100BF94F83400012801D102209C
:10427000F6E7012084F8340000BF94F835000128E7
:104280007ED1022084F8350000206065E449206872
:10429000884249D0E24918312068884244D0E04938
:1042A0003031206888423FD0DD494831206888425B
:1042B0003AD0DB4960312068884235D0D84978311E
:1042C0002068884230D0D6499031206888422BD06F
:1042D000D349A8312068884226D0D2492068884234
:1042E00022D0D0491831206888421DD0CD493031C4
:1042F0002068884218D0CB4948312068884213D0C2
:10430000C8496031206888420ED0C649783120689B
:10431000884209D0C34990312068884204D0C149FD
:10432000A8312068884206D12068006820F001008A
:104330002168086005E02068006820F0010021681D
:1043400008603B46324629462046FCF7CBFEB4497E
:10435000206888424BD0B24918312068884246D044
:10436000AF4930312068884241D0AD49483120689A
:1043700088423CD0AA4960312068884237D000E0AA
:1043800042E1A74978312068884230D0A449903171
:10439000206888422BD0A249A8312068884226D0C4
:1043A000A0492068884222D09E491831206888425E
:1043B0001DD09C4930312068884218D09949483135
:1043C0002068884213D097496031206888420ED017
:1043D000944978312068884209D092499031206808
:1043E000884204D08F49A8312068884201D1012039
:1043F00000E0002080B12068006820F01E0040F03E
:10440000160021680860206CB0B12068006840F098
:104410000800216808600FE02068006820F00E00A6
:1044200040F00A0021680860206C28B1206800680C
:1044300040F004002168086079492068884270D003
:1044400077491831206888426BD07549303120682F
:10445000884266D0724948312068884261D07049EC
:104460006031206888425CD06D497831206888428C
:1044700057D06B4990312068884252D06849A831A2
:10448000206888424DD067492068884249D06549F4
:1044900018312068884244D062493031206888420F
:1044A0003FD060494831206888423AD05D49603148
:1044B0002068884235D05B4978312068884230D006
:1044C00058499031206888422BD05649A83120683D
:1044D000884226D054492068884222D0524914315B
:1044E000206888421DD0504928312068884218D061
:1044F0004D493C312068884213D04B4950312068E7
:1045000088420ED0484964312068884209D0464923
:1045100078312068884204D043498C312068884231
:1045200001D1012000E0002090B1206E006800F46D
:10453000803028B1206E006840F48070216E0860E1
:10454000E06E28B1E06E006840F48070E16E0860B3
:1045500033492068884249D031491831206888425F
:1045600044D02F493031206888423FD02C4948310F
:10457000206888423AD02A4960312068884235D084
:10458000274978312068884230D025499031206809
:1045900088422BD02249A8312068884226D0214960
:1045A0002068884222D01F491831206888421DD0D7
:1045B0001C4930312068884218D01A494831206897
:1045C000884213D017496031206888420ED01549BF
:1045D00078312068884209D0124990312068884299
:1045E00004D01049A8312068884206D120680068AC
:1045F00040F001002168086010E02068006840F089
:1046000001002168086009E04FF40060606500BFA8
:10461000002084F8340000BF4FF0010840461FE638
:1046200010000240100402400854025870B50446BD
:1046300000F020F906462546681C10B104480078B1
:10464000054400BF00F016F9801BA842FAD370BDE4
:104650000C000024F8B502460B4600216D4DD2E057
:1046600001278F401E6806EA0704002C72D01E79CD
:1046700006F00306012E04D01E7906F00306022E72
:1046800013D190684F000326BE40B0434F00DE6850
:10469000BE4030439060506801268E40B0431E7982
:1046A000C6F300168E40304350601E7906F00306B4
:1046B000032E09D0D0684F000326BE40B0434F0000
:1046C0009E68BE403043D0601E7906F00306022E7D
:1046D00013D1CF0802F1200656F827004E07F70E37
:1046E0000F26BE40B0434F07FF0E1E69BE40304349
:1046F000CF0802F1200646F8270010684F00032675
:10470000BE40B0431E7906F003064F00BE40304362
:1047100010605E6806F44036002E73D000BF3E4E37
:10472000366846F002063C4F3E603E46366806F06C
:104730000206009600BF00BF384E8F0856F82700CB
:104740008E07370F0F26BE40B043354EB24202D11E
:10475000002629E056E0334EB24201D1012623E083
:10476000314EB24201D102261EE0304EB24201D19A
:10477000032619E02E4EB24201D1042614E02D4E3C
:10478000B24201D105260FE02B4EB24201D10626DE
:104790000AE02A4EB24201D1072605E0284EB24275
:1047A00001D1092600E00A268F073F0FBE403043A3
:1047B0001A4E8F0846F827004FF0B0463068A043E5
:1047C0005E6806F4801606B120434FF0B0463060B4
:1047D0007068A0435E6806F4001606B120434FF0EF
:1047E000B04670606868A0435E6806F4003606B1A3
:1047F000204368602868A0435E6806F4803606B1EE
:1048000020432860491C1E68CE40002E7FF428AF4C
:10481000F8BD000080000058F44402580804005815
:10482000000002580004025800080258000C025808
:10483000001002580014025800180258001C0258B8
:1048400000240258024613690B400BB1012000E01E
:104850000020704710B5426921EA020302EA010410
:1048600043EA0443836110BD0AB1816101E00B0496
:10487000836170470148006870470000040000240D
:1048800003480068034909780844014908607047F3
:10489000040000240C00002410B5032000F04AF9A5
:1048A00002F030F910490968C1F303210F4A515C45
:1048B00001F01F0120FA01F40B48006800F00F001E
:1048C0001146085C00F01F0024FA00F00849086057
:1048D000084804600F2000F00FF808B1012010BD57
:1048E00000F0BEF80020FAE718440258E8A50508D1
:1048F0001400002410000024F0B58BB00446102CE6
:104900000AD200222146362000F0D6F8362000F0E8
:10491000BFF81C48046002E001200BB0F0BD00BFEE
:104920001948006840F01000174908600846006800
:1049300000F01000019000BF00BF02A903A802F020
:1049400061F8089E1EB902F0B9F8054602E002F0CF
:10495000B5F845000D48B5FBF0F0471E0C480D4971
:10496000086040F2E7310B48C160476000210161F7
:10497000816003F0BCFD18B9064803F0F1FDCCE7F7
:104980000120CAE708000024E844025840420F0012
:1049900000100040E80500244178154A11601449D0
:1049A0000831096821F00101114A08321160121F13
:1049B00041681160017B0907C27A41EA0261827A8B
:1049C00041EAC241427B41EA8241827B41EA424163
:1049D000C27B41EA0241427A41EA0221027A41EA7B
:1049E000420102781143024A083211607047000008
:1049F00098ED00E000BF00BF00BFBFF35F8F00BFB6
:104A000000BF00BF0548006820F4803003490860FB
:104A100000200249703108607047000024ED00E07A
:104A200040F001010D4A11600C497039096841F4E8
:104A300080310A4A703A116000BF00BF00BFBFF367
:104A40004F8F00BF00BF00BF00BF00BF00BFBFF35C
:104A50006F8F00BF00BF00BF7047000094ED00E003
:104A600008B500BF0948006840F002000749086027
:104A70000846006800F00200009000BF00BF00225E
:104A80000F21901E00F018F808BD0000F4440258F1
:104A90000146084600280DDB00BF00BF00F01F03E1
:104AA00001229A4043099B0003F1E023C3F800214F
:104AB00000BF00BF00BF70472DE9F05F80460D4684
:104AC000164609F001F8074639462A46334601F0F2
:104AD0000700C0F1070ABAF1040F02D94FF0040A27
:104AE00001E0C0F1070AD14600F1040ABAF1070F4C
:104AF00002D24FF0000A01E0A0F1030AD4464FF0C1
:104B0000010A0AFA09FAAAF1010A0AEA020A0AFAE9
:104B10000CFA4FF0010B0BFA0CFBABF1010B0BEA9B
:104B2000030B4AEA0B042146404608F0D5FFBDE8D6
:104B3000F09F000000BF00F00702064B19684FF617
:104B4000FF031940044B0B4343EA0221014B196058
:104B500000BF70470CED00E00000FA0570B5044698
:104B600015480068C0F3800048B91348006800F099
:104B70000700A04201D0012070BD0020FCE70E48D4
:104B8000006820F0070020430B490860FFF772FE21
:104B9000054607E0FFF76EFE401BB0F57A7F01D9AE
:104BA0000120E9E7044808380068C0F340300028D5
:104BB000F0D00020E0E700000C48025810B501F0EA
:104BC00057FF05490968C1F30211044A515C01F01D
:104BD0001F01C84010BD000020440258E8A5050888
:104BE00070B50146844D2D6805F00303824D2D6894
:104BF000C5F30510804D2D1D2D6805F001047E4D77
:104C00000C352D68C5F3CC0515FB04F501EE105AE3
:104C1000B8EE411AF0EE410A00286FD023B1012B03
:104C20004ED0022B6BD16BE0734D283D2D68C5F340
:104C300040153DB3704D283D2D68C5F3C1066F4D3D
:104C400025FA06F201EE102AF8EE411A01EE100ADA
:104C5000B8EE411A81EE812A9FED691AC0EE811AE1
:104C6000654D08352D68C5F3080501EE105AB8EEFC
:104C7000411A31EE811AF7EE001A31EE211A22EEB6
:104C8000010A1CE001EE100AB8EE411ADFED5D1AD0
:104C900081EE812A9FED5A1AC0EE811A564D0835D1
:104CA0002D68C5F3080501EE105AB8EE411A31EE31
:104CB000811AF7EE001A31EE211A22EE010A5BE0AA
:104CC00001EE100AB8EE411ADFED4F1A81EE812A8B
:104CD0009FED4B1AC0EE811A474D08352D68C5F37C
:104CE000080501EE105AB8EE411A31EE811AF7EEBE
:104CF000001A31EE211A22EE010A3DE077E01DE0B4
:104D000001EE100AB8EE411A9FED402AC2EE011AD8
:104D10009FED3B1A80EE812A374D08352D68C5F38B
:104D2000080501EE105AB8EE411A32EE011AB7EE3C
:104D3000002A31EE021A21EE810A1DE001EE100A6E
:104D4000B8EE411ADFED2F1A81EE812A9FED2C1A61
:104D5000C0EE811A284D08352D68C5F3080501EE0F
:104D6000105AB8EE411A31EE811AF7EE001A31EE00
:104D7000211A22EE010A00BF00BF1F4D08352D6821
:104D8000C5F3462501EE105AB8EE411AF7EE001AA7
:104D900031EE211AC0EE011ABCEEE11A81ED001AC3
:104DA000154D08352D68C5F3064501EE105AB8EECD
:104DB000411AF7EE001A31EE211AC0EE011ABCEECC
:104DC000E11A81ED011A0C4D08352D68C5F3066511
:104DD00001EE105AB8EE411AF7EE001A31EE211A20
:104DE000C0EE011ABCEEE11A81ED021A03E00025C3
:104DF0000D604D608D6070BD284402580090D00356
:104E0000000000460024744C0024744A20BCBE4BB1
:104E100070B50146844D2D6805F00303824D2D6861
:104E2000C5F30530804D2D1D2D68C5F300147E4D52
:104E300014352D68C5F3CC0515FB04F501EE105AA9
:104E4000B8EE411AF0EE410A00286FD023B1012BD1
:104E50004ED0022B6BD16BE0734D283D2D68C5F30E
:104E600040153DB3704D283D2D68C5F3C1066F4D0B
:104E700025FA06F201EE102AF8EE411A01EE100AA8
:104E8000B8EE411A81EE812A9FED691AC0EE811AAF
:104E9000654D10352D68C5F3080501EE105AB8EEC2
:104EA000411A31EE811AF7EE001A31EE211A22EE84
:104EB000010A1CE001EE100AB8EE411ADFED5D1A9E
:104EC00081EE812A9FED5A1AC0EE811A564D103597
:104ED0002D68C5F3080501EE105AB8EE411A31EEFF
:104EE000811AF7EE001A31EE211A22EE010A5BE078
:104EF00001EE100AB8EE411ADFED4F1A81EE812A59
:104F00009FED4B1AC0EE811A474D10352D68C5F341
:104F1000080501EE105AB8EE411A31EE811AF7EE8B
:104F2000001A31EE211A22EE010A3DE077E01DE081
:104F300001EE100AB8EE411A9FED402AC2EE011AA6
:104F40009FED3B1A80EE812A374D10352D68C5F351
:104F5000080501EE105AB8EE411A32EE011AB7EE0A
:104F6000002A31EE021A21EE810A1DE001EE100A3C
:104F7000B8EE411ADFED301A81EE812A9FED2C1A2E
:104F8000C0EE811A284D10352D68C5F3080501EED5
:104F9000105AB8EE411A31EE811AF7EE001A31EECE
:104FA000211A22EE010A00BF00BF1F4D10352D68E7
:104FB000C5F3462501EE105AB8EE411AF7EE001A75
:104FC00031EE211AC0EE011ABCEEE11A81ED001A91
:104FD000154D10352D68C5F3064501EE105AB8EE93
:104FE000411AF7EE001A31EE211AC0EE011ABCEE9A
:104FF000E11A81ED011A0C4D10352D68C5F30665D7
:1050000001EE105AB8EE411AF7EE001A31EE211AED
:10501000C0EE011ABCEEE11A81ED021A03E0002590
:105020000D604D608D6070BD284402580090D00323
:10503000000000460024744C0024744A20BCBE4B7F
:1050400070B50146844D2D6805F00303824D2D682F
:10505000C5F30550804D2D1D2D68C5F300247E4DF0
:105060001C352D68C5F3CC0515FB04F501EE105A6F
:10507000B8EE411AF0EE410A00286FD023B1012B9F
:105080004ED0022B6BD16BE0734D283D2D68C5F3DC
:1050900040153DB3704D283D2D68C5F3C1066F4DD9
:1050A00025FA06F201EE102AF8EE411A01EE100A76
:1050B000B8EE411A81EE812A9FED691AC0EE811A7D
:1050C000654D18352D68C5F3080501EE105AB8EE88
:1050D000411A31EE811AF7EE001A31EE211A22EE52
:1050E000010A1CE001EE100AB8EE411ADFED5D1A6C
:1050F00081EE812A9FED5A1AC0EE811A564D18355D
:105100002D68C5F3080501EE105AB8EE411A31EECC
:10511000811AF7EE001A31EE211A22EE010A5BE045
:1051200001EE100AB8EE411ADFED4F1A81EE812A26
:105130009FED4B1AC0EE811A474D18352D68C5F307
:10514000080501EE105AB8EE411A31EE811AF7EE59
:10515000001A31EE211A22EE010A3DE077E01DE04F
:1051600001EE100AB8EE411A9FED402AC2EE011A74
:105170009FED3B1A80EE812A374D18352D68C5F317
:10518000080501EE105AB8EE411A32EE011AB7EED8
:10519000002A31EE021A21EE810A1DE001EE100A0A
:1051A000B8EE411ADFED301A81EE812A9FED2C1AFC
:1051B000C0EE811A284D18352D68C5F3080501EE9B
:1051C000105AB8EE411A31EE811AF7EE001A31EE9C
:1051D000211A22EE010A00BF00BF1F4D18352D68AD
:1051E000C5F3462501EE105AB8EE411AF7EE001A43
:1051F00031EE211AC0EE011ABCEEE11A81ED001A5F
:10520000154D18352D68C5F3064501EE105AB8EE58
:10521000411AF7EE001A31EE211AC0EE011ABCEE67
:10522000E11A81ED011A0C4D18352D68C5F306659C
:1052300001EE105AB8EE411AF7EE001A31EE211ABB
:10524000C0EE011ABCEEE11A81ED021A03E000255E
:105250000D604D608D6070BD284402580090D003F1
:10526000000000460024744C0024744A20BCBE4B4D
:105270002DE9F04389B006460F464FF4807186EA67
:105280000100384370D1F748006800F00709B9F110
:10529000050F65D2DFE809F0031221623000F14802
:1052A0005038006800F00070B0F1007F04D106A80B
:1052B000FFF796FC079C00E0002453E0E9485038D3
:1052C000006800F00060B0F1006F04D103A8FFF7A0
:1052D0009FFD039C00E0002444E0E2485038006851
:1052E00000F00050B0F1005F04D16846FFF7A8FE5F
:1052F000009C00E0002435E0DA48001F006800F060
:105300004055D8485038006800F00400042809D1FE
:1053100045B9D44850380068C0F3C101D24820FADA
:1053200001F41AE0CF485038006800F48070B0F5FE
:10533000807F04D1B5F1805F01D1CC4C0DE0C9482C
:105340005038006800F40030B0F5003F04D1B5F1EA
:10535000005F01D1C64C00E0002403E0C54C01E031
:10536000002400BF4BE3FFE74FF4806186EA0100B1
:1053700038437BD1BB480830006800F46009B9F5B8
:10538000800F2CD006DCB9F1000F0AD0B9F5001F50
:1053900069D115E0B9F5C00F63D0B9F5000F62D13E
:1053A0002CE0B0485038006800F00070B0F1007F89
:1053B00004D106A8FFF714FC079C00E0002454E089
:1053C000A8485038006800F00060B0F1006F04D1C8
:1053D00003A8FFF71DFD039C00E0002445E0A14861
:1053E0005038006800F00050B0F1005F04D168460A
:1053F000FFF726FE009C00E0002436E09948001FDD
:10540000006800F0405597485038006800F00400EC
:10541000042809D145B9934850380068C0F3C10148
:10542000914820FA01F41BE08E485038006800F4DF
:105430008070B0F5807F04D1B5F1805F01D18B4CD5
:105440000EE088485038006800F40030B0F5003FA6
:1054500005D1B5F1005F02D1854C01E006E00024E2
:1054600003E0844C01E0002400BFC8E24FF4006177
:1054700086EA010038437BD17A480830006800F0A2
:10548000E069B9F1007F2CD006DCB9F1000F0AD039
:10549000B9F1807F69D115E0B9F1407F63D0B9F1EE
:1054A000806F62D12CE06F485038006800F00070C7
:1054B000B0F1007F04D106A8FFF792FB079C00E043
:1054C000002454E067485038006800F00060B0F1F4
:1054D000006F04D103A8FFF79BFC039C00E00024AD
:1054E00045E060485038006800F00050B0F1005FBF
:1054F00004D16846FFF7A4FD009C00E0002436E0DC
:105500005848001F006800F0405556485038006861
:1055100000F00400042809D145B952485038006809
:10552000C0F3C101504820FA01F41BE04D48503847
:10553000006800F48070B0F5807F04D1B5F1805F21
:1055400001D14A4C0EE047485038006800F4003062
:10555000B0F5003F05D1B5F1005F02D1444C01E048
:1055600006E0002403E0434C01E0002400BF46E2D3
:105570004FF4805186EA0100384372D139480068FF
:1055800000F4E048B8F5005F2CD006DCB8F1000F5D
:105590000AD0B8F5805F75D115E0B8F5405F6FD0DF
:1055A000B8F5804F6ED12CE02E485038006800F0DE
:1055B0000070B0F1007F04D106A8FFF711FB079C33
:1055C00000E0002460E027485038006800F00060E8
:1055D000B0F1006F04D103A8FFF71AFC039C00E0B0
:1055E000002451E01F485038006800F00050B0F12E
:1055F000005F04D16846FFF723FD009C00E0002413
:1056000042E01848001F006800F040551548503827
:10561000006800F00400042809D145B91148503849
:105620000068C0F3C101104820FA01F427E00D48DA
:105630005038006800F48070B0F5807F04D1B5F177
:10564000805F01D1094C1AE006485038006800F428
:105650000030B0F5003F11D1B5F1005F0ED1044C20
:105660000DE012E0504402580090D00300093D00C4
:1056700040787D010080BB0004E001E0002403E0ED
:10568000E14C01E0002400BFB9E14FF4005186EA8B
:105690000100384367D1DD48006800F4E028B8F520
:1056A000403F33D009DCB8F1000F0DD0B8F5803F92
:1056B0000ED0B8F5003F53D119E0B8F5802F37D0A0
:1056C000B8F5A02F4CD13FE001F0F8F9044649E0CD
:1056D000CE485038006800F00060B0F1006F04D18F
:1056E00003A8FFF795FB049C00E000243AE0C748BC
:1056F0005038006800F00050B0F1005F04D16846F7
:10570000FFF79EFC019C00E000242BE0BF485038CE
:10571000006800F00400042808D1BC485038006834
:10572000C0F3C101BA4820FA01F400E0002419E0F6
:10573000B6485038006800F48070B0F5807F01D121
:10574000B44C00E000240DE0B0485038006800F48C
:105750000030B0F5003F01D1AF4C00E0002401E083
:10576000002400BF4BE14FF4002186EA01003843DA
:1057700061D1A6480830006800F44038B8F1000F45
:1057800006D0B8F5803F12D0B8F5003F50D11DE0EB
:105790009E485038006800F00060B0F1006F04D1FE
:1057A00003A8FFF735FB039C00E0002442E0974884
:1057B0005038006800F00050B0F1005F04D1684636
:1057C000FFF73EFC029C00E0002433E08F48001FFE
:1057D000006800F040558D485038006800F0040023
:1057E000042809D145B9894850380068C0F3C1017F
:1057F000874820FA01F41AE084485038006800F421
:105800008070B0F5807F04D1B5F1805F01D1814C0B
:105810000DE07E485038006800F40030B0F5003FDD
:1058200004D1B5F1005F01D17B4C00E0002401E020
:10583000002400BFE3E04FF4803186EA01003843E2
:105840002CD17248001F006800F48038B8F1000FB6
:1058500003D0B8F5803F1ED10EE06C485038006888
:1058600000F00070B0F1007F04D106A8FFF7B8F98E
:10587000079C00E0002410E064485038006800F005
:105880000060B0F1006F04D103A8FFF7C1FA059CD6
:1058900000E0002401E0002400BFB0E04FF48041AC
:1058A00086EA0100384368D158480830006800F0A3
:1058B000E048B8F1405F33D009DCB8F1000F0DD0FB
:1058C000B8F1805F0ED0B8F1005F53D119E0B8F1A4
:1058D000804F37D0B8F1A04F4CD13FE0FFF76EF9C1
:1058E000044649E049485038006800F00060B0F1D3
:1058F000006F04D103A8FFF78BFA049C00E000249A
:105900003AE042485038006800F00050B0F1005FC3
:1059100004D16846FFF794FB019C00E000242BE0D3
:105920003A485038006800F00400042808D137488D
:1059300050380068C0F3C101354820FA01F400E096
:10594000002419E031485038006800F48070B0F548
:10595000807F01D12F4C00E000240DE02B4850380F
:10596000006800F40030B0F5003F01D12A4C00E09F
:10597000002401E0002400BF41E04FF4004186EA2A
:10598000010038433AD12148006800F04058B8F18E
:10599000000F06D0B8F1805F0FD0B8F1005F2AD1B8
:1059A0001AE01A485038006800F40030B0F5003FA3
:1059B00001D1194C00E000241FE014485038006861
:1059C00000F00070B0F1007F04D106A8FFF708F9DD
:1059D000079C00E0002410E00C485038006800F0FC
:1059E0000060B0F1006F04D103A8FFF711FA049C26
:1059F00000E0002401E0002400BF00E00024204675
:105A000009B0BDE8F08300000080BB00504402589C
:105A10000090D00300093D0040787D012DE9F04160
:105A200004460025A8464FF00062D4E9001011405A
:105A30000020134659404040014331D1606E48B1C7
:105A4000B0F5801F0DD0B0F5001F11D0B0F5401F8C
:105A500016D114E0FE48006840F40030FC490860AC
:105A600010E0022104F1080004F050FB054609E0B3
:105A7000022104F1280004F0FBFB054602E001E0EE
:105A8000012500BF00BF55B9F1482430006820F45B
:105A90004010616E0843EE492431086000E0A846DA
:105AA0004FF48072D4E90010114000201346594091
:105AB000404001432ED1A06D05281BD2DFE800F045
:105AC000030A11181900E248006840F40030E04968
:105AD000086011E0002104F1080004F017FB0546FE
